:10000000006B016B026B056B036B066B076B086B78
:10001000096B0A690B690C6B0D6B0E6B0F6B936AA6
:10002000946A956A966881688B688C6899EC00F090
:10003000816A8B6A8C6AFC0E026F024B2BEF00F018
:10004000E60E016F006961EC00F00007FCE1013F82
:10005000F9D71DEF00F07CEC00F01BEF00F081CF32
:100060000EF0FF0E0E633AEF00F00E6B0B690EC040
:1000700081FF12000E810E470E810B670E930B6BF2
:100080000EC081FF1200816A0C6B0E6B0B691200AF
:1000900082CF0FF0FF0E0F6353EF00F00F6B0A6972
:1000A0000FC082FF12000F8F0F430F8F0A670F9D43
:1000B0000A6B0FC082FF1200826A086B0F6B0A691D
:1000C000120084B0076973EC00F084B20D696AEC29
:1000D00000F012000D676EEF00F0120084B2120003
:1000E0000C1F0D6B1200076777EF00F0120084B051
:1000F0001200081F076B1200066795EF00F091ECE5
:1001000000F0086748EC00F0086789EF00F05CEC4D
:1001100000F00C672FEC00F00C67120043EC00F0CD
:100120001200010E836E062B1200836A060781EF10
:1001300000F0FA0E026F024B1200016B006900071B
:0A014000FEE1013FFBD79BEF00F04A
:020000040001F9
:04FFFC0000EF00F022
:020000040030CA
:0600010006191EF38381C5
:06000800FFC0FFE0FF4015
:00000001FF
