:020000040000FA
:0400000007EF00F016
:100008005382D8ED01F089EF04F04EC060F04FC084
:1000180061F050C062F051C063F0A6EC04F060C01B
:1000280068F061C069F068C0D9FF69C0DAFFDF50C5
:100038004C108B6E000120EE01F06851D9266951F1
:10004800DA22DF504B108C6E20EE02F06851D92670
:100058006951DA22DF504A108D6E20EE03F06851A4
:10006800D9266951DA22DF5049108E6E68C0D9FF4F
:1000780069C0DAFFDF504C140009D8B446EF00F02D
:1000880048EF00F05FEF00F03B503C10D8A44FEF72
:1000980000F051EF00F05FEF00F0000E3C6E010E33
:1000A8003B6E4CC048F068C0D9FF69C0DAFFDF502A
:1000B800FF0A82144C6E20EE01F06851D92669516E
:1000C800DA22DF504B140009D8B46DEF00F06FEF5F
:1000D80000F088EF00F039503A10D8A476EF00F01D
:1000E80078EF00F088EF00F0000E3A6E010E396EDE
:1000F8004BC047F020EE01F06851D9266951DA2249
:10010800DF50FF0A83144B6E20EE02F06851D926A7
:100118006951DA22DF504A140009D8B496EF00F08A
:1001280098EF00F0B1EF00F037503810D8A49FEFE7
:1001380000F0A1EF00F0B1EF00F0000E386E010EF4
:10014800376E4AC046F020EE02F06851D926695150
:10015800DA22DF50FF0A84144A6E20EE03F0685159
:10016800D9266951DA22DF5049140009D8B4BFEF03
:1001780000F0C1EF00F0DAEF00F035503610D8A4E7
:10018800C8EF00F0CAEF00F0DAEF00F0000E366EAC
:10019800010E356E49C045F020EE03F06851D926AE
:1001A8006951DA22DF50FF0A8514496E68C0D9FF09
:1001B80069C0DAFFDFBEE3EF00F0E5EF00F00CEF17
:1001C80001F020EE01F06851D9266951DA22DFBE2C
:1001D800F0EF00F0F2EF00F00CEF01F020EE02F08B
:1001E8006851D9266951DA22DFBEFDEF00F0FFEF32
:1001F80000F00CEF01F020EE03F06851D9266951A8
:10020800DA22DFAE0AEF01F00CEF01F010EF01F097
:10021800000E346E010E336E120009C0D9FF0AC0F9
:10022800DAFFDECF01F0DECF02F0DECF03F0DECF63
:1002380004F0D2EC04F001C02BF002C02CF02BC06B
:10024800D9FF2CC0DAFFDF500B6ED8900B34276E25
:1002580020EE01F02B50D9262C50DA22DF500B6EFD
:10026800D8900B34286E20EE02F02B50D9262C5053
:10027800DA22DF500B6ED8900B34296E20EE03F093
:100288002B50D9262C50DA22DF500B6ED8900B3425
:100298002A6E2BC0D9FF2CC0DAFF27C0DFFF20EE63
:1002A80001F02B50D9262C50DA2228C0DFFF20EE8F
:1002B80002F02B50D9262C50DA2229C0DFFF20EE7D
:1002C80003F02B50D9262C50DA222AC0DFFF20EE6B
:1002D80002F02B50D9262C50DA22DF500B6E0BC0BF
:1002E8000CF00D6A0E6A0F6A0EC00FF00DC00EF00A
:1002F8000CC00DF00C6A20EE01F02B50D9262C50C2
:10030800DA22DF50106E10C011F0126A136A146AF4
:1003180012C014F011C013F0126A116A2BC0D9FF71
:100328002CC0DAFFDF50156E15C016F0176A186A70
:10033800196A16C019F0186A176A166A1150161049
:100348001A6E125017101B6E135018101C6E145092
:1003580019101D6E0C501A101E6E0D501B101F6EBA
:100368000E501C10206E0F501D10216E20EE03F051
:100378002B50D9262C50DA22DF50226E22501E1024
:10038800236E1F50246E2050256E2150266E09C002
:10039800D9FF0AC0DAFF23C0DEFF24C0DEFF25C074
:1003A800DEFF26C0DEFF12000600D9CF2DF0DACF1F
:1003B8002EF0F2A0E2EF01F0E4EF01F0E5EF01F03A
:1003C800F290F2A4EAEF01F0ECEF01F07FEF02F017
:1003D8003D4A3E2AF294690ED66E670ED76E3F509C
:1003E8004010D8A4FAEF01F0FCEF01F012EF02F090
:1003F800000E406E010E3F6E4EC02FF04FC030F021
:1004080050C031F051C032F0000E4E6E000E4F6EEB
:10041800000E506E000E516E26EF02F0000E406E78
:10042800000E3F6E2FC04EF030C04FF031C050F07C
:1004380032C051F0000E2F6E000E306E000E316E7D
:10044800000E326E080E3D183E10D8A42EEF02F0B2
:1004580030EF02F043EF02F033503410D8A437EFF6
:1004680002F039EF02F03FEF02F04E0E096E000E77
:100478000A6E11EC01F0000E3E6E000E3D6E3B045C
:100488003C10D8A44AEF02F04CEF02F052EF02F011
:1004980048C04CF0000E3C6E000E3B6E39043A101A
:1004A800D8A459EF02F05BEF02F061EF02F047C009
:1004B8004BF0000E3A6E000E396E37043810D8A48F
:1004C80068EF02F06AEF02F070EF02F046C04AF0FF
:1004D800000E386E000E376E35043610D8A477EF4C
:1004E80002F079EF02F07FEF02F045C049F0000E0C
:1004F800366E000E356E2EC0DAFF2DC0D9FF53922E
:1005080011004E504F1050105110D8A48EEF02F029
:1005180090EF02F0A0EF02F02FC060F030C061F061
:1005280031C062F032C063F0A6EC04F060C068F03D
:1005380061C069F0AEEF02F04EC060F04FC061F0EC
:1005480050C062F051C063F0A6EC04F060C068F0DF
:1005580061C069F068C0D9FF69C0DAFFDF50821056
:1005680048104C6E000120EE01F06851D9266951FF
:10057800DA22DF50831047104B6E20EE02F06851EC
:10058800D9266951DA22DF50841046104A6E20EECF
:1005980003F06851D9266951DA22DF5085104510D9
:1005A800496E010E7725606F000E7821616F000E8D
:1005B800636F030E626FA7EC03F060C077F061C051
:1005C80078F0000E00016E6F000E6D6F000E346E35
:1005D800000E336E3B043C10D8A4F5EF02F0F7EFA1
:1005E80002F0FDEF02F048C08BFF000E3C6E000EDB
:1005F8003B6E39043A10D8A404EF03F006EF03F079
:100608000CEF03F047C08CFF000E3A6E000E396EF7
:1006180037043810D8A413EF03F015EF03F01BEFDD
:1006280003F046C08DFF000E386E000E376E35049D
:100638003610D8A422EF03F024EF03F02AEF03F0DA
:1006480045C08EFF000E366E000E356E00EC04F0CD
:10065800120086A003D000016A8102D000016A91CD
:1006680086A202D06A8302D000016A9386A402D0CF
:100678006A8502D000016A9586A602D06A8702D0F0
:1006880000016A977051D8A44CEF03F04EEF03F0C5
:100698005EEF03F06A51D8B454EF03F056EF03F05D
:1006A800A6EF03F0010E706F6AC071F0000E6F6F55
:1006B800A6EF03F07005D8A464EF03F066EF03F02B
:1006C80080EF03F071516A19D8A46DEF03F06FEF52
:1006D80003F07CEF03F06F2B6F51D8B476EF03F083
:1006E80078EF03F0A6EF03F0020E706FA6EF03F0A9
:1006F800000E706FA6EF03F0020E7019D8A487EFF2
:1007080003F089EF03F095EF03F06A51D8A48FEF57
:1007180003F091EF03F0A6EF03F0030E706FA6EF5E
:1007280003F0030E7019D8A49CEF03F09EEF03F0BA
:10073800A6EF03F071C072F0000E706F000E6F6FBD
:1007480085EC02F01200000E0001656F61BFB1EF89
:1007580003F0AFEF03F0B7EF03F0606D611FD8B09F
:10076800612B010E656F63BFBEEF03F0BCEF03F0B2
:10077800C2EF03F0626D631FD8B0632B625163113F
:10078800D8B4C9EF03F0CBEF03F0EFEF03F0010E9D
:10079800646FD3EF03F0D89062376337642B63AF8D
:1007A800D8EF03F0DAEF03F0CFEF03F06251605DAA
:1007B80063516159D8A0E3EF03F0E5EF03F0E9EFE7
:1007C80003F06251605F6351615BD89063336233B9
:1007D800642FDAEF03F06551D8B4F5EF03F0F7EFC3
:1007E80003F0FBEF03F0606D611FD8B0612B60C0B0
:1007F80060F061C061F01200020E000177197811F3
:10080800D8A409EF04F00BEF04F015EF04F0000E84
:100818004E6E000E4F6E000E506E010E516E30EF90
:1008280004F077057811D8A41CEF04F01EEF04F04B
:1008380028EF04F0000E4E6E000E4F6E030E506E41
:10084800010E516E30EF04F0000E4E6E000E4F6E2A
:10085800030E506E030E516E000E6E6F010E6D6F1B
:10086800000E2F6E000E306E000E316E000E326ECE
:1008780012000F0E926E000E896E000E806EF00E42
:10088800936E000E816E81CF8AFF000E946E000E6B
:100898008B6E000E826E000E956E000E8C6E000E32
:1008A800836E000E966E000E8D6E000E846E000E26
:1008B800976E000E8E6E000E856E0F0E986E000EEF
:1008C8008F6E000E866E81CF52F012003DEC04F060
:1008D800330E00016C6FBB0E6B6FDF0EE82EFED778
:1008E8006B2FFCD76C2FFAD700D0BCEC04F0690E44
:1008F800D66E670ED76E00EC04F02DEC03F009EC11
:1009080000F081EF04F007EF00F0CE0EF66E090E4E
:10091800F76E000EF86E0900F5CF77F00900F5CFF5
:1009280078F000EE6DF00A0EEE6AE806FDE100EEE2
:100938002FF0230EEE6AE806FDE153905392000172
:100948006AEF04F063C064F062C065F061C066F0ED
:1009580060C067F064C073F065C074F066C075F07D
:1009680067C076F0730E0001606F000E616F1200B1
:10097800F28EF28CF28AF298F290F286F294F29267
:10098800D09ED58ED59CD59AD598D596D584D59216
:10099800D580690ED66E670ED76E120004C005F0BA
:1009A80003C006F002C007F001C008F005C073F0EC
:1009B80006C074F007C075F008C076F0730E016EBB
:0809C800000E026E1200020095
:020000040030CA
:08000000FF06191EF38381FFC6
:00000001FF
