:020000040000FA
:0400000007EF00F016
:0A0008005F82B9ED2AF0EEEF42F03E
:10100000002450525325303258230024414C54259B
:101010003034582300244453542530345823004995
:101020004E46494E49545900696E66696E69747935
:1010300000686572650A0024454E442300244C452F
:10104000440024454E44002453504400244D414E56
:101050000024474F4F0024414C54004E414E00693C
:101060006E66006E616E00686858006C6C580068AF
:101070006864006C6C6400686869006C6C69006886
:10108000686E006C6C6E0068686F006C6C6F006856
:101090006875006C6C7500686878006C6C78002569
:1010A000325800253458006A58007458007A5800A5
:1010B0006C61006A64007464007A64006C65006CA2
:1010C00066006C67006A69007469007A69006A6E7C
:1010D00000746E007A6E006A6F00746F007A6F00A1
:1010E0006A75007475007A75006A78007478007A01
:0310F00078000085
:1010F40074C0D9FF75C0DAFFDECFF6FFDDCFF7FF8E
:10110400000EF86E0800F550250AD8A48CEF08F0FC
:101114008EEF08F01BEF1DF074C0D9FF75C0DAFF25
:10112400DE2A000EDD22000E0001D06F000ECF6F0C
:10113400CFC0D1F0D0C0D2F074C0D9FF75C0DAFFEF
:10114400DECFF6FFDDCFF7FF000EF86E0800F55096
:101154002A0AD8A4B0EF08F0B2EF08F0BDEF08F007
:1011640074C0D9FF75C0DAFFDE2A000EDD22000E3E
:10117400D26F010ED16F74C0D9FF75C0DAFFDECF14
:1011840008F0DDCF09F052EC39F008C0CFF009C007
:10119400D0F0D4EF08F074C0D9FF75C0DAFFDE2AAE
:1011A400000EDD22D00E0001786FFF0E796F74C03F
:1011B400D9FF75C0DAFFDECFF6FFDDCFF7FF000EF3
:1011C400F86E0800F5507A6F7B6B78517A27795165
:1011D4007B237B510AE10A0E7A5DD8A0F4EF08F074
:1011E400F7EF08F0010EF8EF08F0000E846F856B3E
:1011F40084518511D8A401EF09F003EF09F0CDEF74
:1012040008F074C0D9FF75C0DAFFDECFF6FFDDCF7A
:10121400F7FF000EF86E0800F550076E086A84ECBC
:1012240040F0075000018A6F8A51D8B41CEF09F0CE
:101234001EEF09F05CEF09F074C0D9FF75C0DAFF46
:10124400DECF78F0DDCF79F0010E7827000E792318
:1012540078C0F6FF79C0F7FF000EF86E0800F5506D
:10126400076E086A84EC40F0075000018B6F8B51C5
:10127400D8B43FEF09F041EF09F05CEF09F074C016
:10128400D9FF75C0DAFFDECF78F0DDCF79F0020E3A
:101294007827000E792378C0F6FF79C0F7FF000E97
:1012A400F86E0800F550076E086A84EC40F00750A9
:1012B40000018C6F74C0D9FF75C0DAFFDECFF6FF72
:1012C400DDCFF7FF000EF86E0800F550630AD8A4CE
:1012D4006EEF09F070EF09F0B8EF09F074C0D9FFB0
:1012E40075C0DAFFDE2A000EDD22D151D211D8A456
:1012F4007EEF09F080EF09F0A4EF09F076C0D9FF82
:1013040077C0DAFFDFCF78F0020EDE26DFCF79F088
:10131400000EDD2278C0D9FF79C0DAFFDECFA1F05C
:10132400DDCFA2F072C00CF073C00DF0A1C00EF0BE
:10133400A2C00FF0CFEC3AF00CC0A3F00DC0A4F0A3
:10134400B2EF09F072C00CF073C00DF0000E0E6E17
:10135400000E0F6ECFEC3AF00CC0A3F00DC0A4F059
:10136400A3C072F0A4C073F05AEF1DF074C0D9FF8B
:1013740075C0DAFFDECF01F0DDCF02F06F0E036E31
:10138400100E046E000E066E030E056E6AEC3BF042
:1013940001500210D8B4D1EF09F0D3EF09F0EEEF09
:1013A40009F074C0D9FF75C0DAFFDECF01F0DDCFDC
:1013B40002F0770E036E100E046E000E066E030E1E
:1013C400056E6AEC3BF001500210D8A4ECEF09F072
:1013D400EEEF09F037EF0AF0030E74C0D9FF75C0C1
:1013E400DAFFDE26000EDD2272C056F073C057F01D
:1013F400910E586E000E596EBDEC35F056C0A3F038
:1014040057C0A4F00001D151D211D8A40CEF0AF0B6
:101414000EEF0AF0B2EF09F0A4BF19EF0AF0A451DD
:1014240008E1A305D8A019EF0AF01BEF0AF0B2EF08
:1014340009F076C0D9FF77C0DAFFDFCF78F0020E6B
:10144400DE26DFCF79F0000EDD2278C0D9FF79C027
:10145400DAFFDECFA1F0DDCFA2F0A1C0D9FFA2C098
:10146400DAFF91C0DFFFB2EF09F074C0D9FF75C095
:10147400DAFFDECF01F0DDCF02F0700E036E100E46
:10148400046E000E066E020E056E6AEC3BF001500F
:101494000210D8B450EF0AF052EF0AF06DEF0AF0E0
:1014A40074C0D9FF75C0DAFFDECF01F0DDCF02F0E2
:1014B400780E036E100E046E000E066E020E056E9C
:1014C4006AEC3BF001500210D8A46BEF0AF06DEF08
:1014D4000AF0B8EF0AF0020E74C0D9FF75C0DAFF43
:1014E400DE26000EDD2272C056F073C057F0910E56
:1014F400586E000E596EBDEC35F056C0A3F057C0BF
:10150400A4F00001D151D211D8A48BEF0AF08DEFD1
:101514000AF0B2EF09F0A4BF98EF0AF0A45108E171
:10152400A305D8A098EF0AF09AEF0AF0B2EF09F0F9
:1015340076C0D9FF77C0DAFFDFCF78F0020EDE265F
:10154400DFCF79F0000EDD2278C0D9FF79C0DAFF51
:10155400DECFA1F0DDCFA2F0A1C0D9FFA2C0DAFF97
:1015640091C0DEFF92C0DDFFB2EF09F074C0D9FF75
:1015740075C0DAFFDECFF6FFDDCFF7FF000EF86EA1
:101584000800F550640AD8B4CAEF0AF0CCEF0AF0A8
:10159400E0EF0AF074C0D9FF75C0DAFFDECFF6FFC2
:1015A400DDCFF7FF000EF86E0800F550690AD8A4E5
:1015B400DEEF0AF0E0EF0AF02AEF0BF074C0D9FF77
:1015C40075C0DAFFDE2A000EDD2272C056F073C049
:1015D40057F0910E586E000E596EBDEC35F056C0A2
:1015E400A3F057C0A4F00001D151D211D8A4FDEF4B
:1015F4000AF0FFEF0AF0B2EF09F0A4BF0AEF0BF014
:10160400A45108E1A305D8A00AEF0BF00CEF0BF0EE
:10161400B2EF09F076C0D9FF77C0DAFFDFCF78F0F8
:10162400020EDE26DFCF79F0000EDD2278C0D9FF6E
:1016340079C0DAFFDECFA1F0DDCFA2F0A1C0D9FFDF
:10164400A2C0DAFF91C0DEFF92C0DDFFB2EF09F065
:1016540074C0D9FF75C0DAFFDECF01F0DDCF02F030
:10166400740E036E100E046E000E066E020E056EEE
:101674006AEC3BF001500210D8B443EF0BF045EF95
:101684000BF060EF0BF074C0D9FF75C0DAFFDECF4A
:1016940001F0DDCF02F07C0E036E100E046E000E1E
:1016A400066E020E056E6AEC3BF001500210D8A4DF
:1016B4005EEF0BF060EF0BF0AFEF0BF0020E74C0B7
:1016C400D9FF75C0DAFFDE26000EDD2272C056F0A7
:1016D40073C057F0910E586E000E596EBDEC35F084
:1016E40056C0A3F057C0A4F00001D151D211D8A420
:1016F4007EEF0BF080EF0BF0B2EF09F0A4BF8BEF9D
:101704000BF0A45108E1A305D8A08BEF0BF08DEFEB
:101714000BF0B2EF09F076C0D9FF77C0DAFFDFCF64
:1017240078F0020EDE26DFCF79F0000EDD2278C0DD
:10173400D9FF79C0DAFFDECFA1F0DDCFA2F0A1C0DE
:10174400D9FFA2C0DAFF91C0DEFF92C0DEFF93C0D2
:10175400DEFF94C0DEFFB2EF09F074C0D9FF75C09C
:10176400DAFFDECF01F0DDCF02F0730E036E100E50
:10177400046E000E066E030E056E6AEC3BF001501B
:101784000210D8B4C8EF0BF0CAEF0BF0E5EF0BF082
:1017940074C0D9FF75C0DAFFDECF01F0DDCF02F0EF
:1017A4007B0E036E100E046E000E066E030E056EA5
:1017B4006AEC3BF001500210D8A4E3EF0BF0E5EF24
:1017C4000BF03CEF0CF0030E74C0D9FF75C0DAFFC8
:1017D400DE26000EDD2272C056F073C057F0910E63
:1017E400586E000E596EBDEC35F056C0A3F057C0CC
:1017F400A4F00001D151D211D8A403EF0CF005EFED
:101804000CF0B2EF09F0A4BF10EF0CF0A45108E102
:10181400A305D8A010EF0CF012EF0CF0B2EF09F012
:1018240076C0D9FF77C0DAFFDFCF78F0020EDE266C
:10183400DFCF79F0000EDD2278C0D9FF79C0DAFF5E
:10184400DECFA1F0DDCFA2F0A1C0D9FFA2C0DAFFA4
:1018540091C0DEFF92C0DEFF93C0DEFF94C0DEFFC6
:1018640095C0DEFF96C0DEFF97C0DEFF98C0DEFFA6
:10187400B2EF09F074C0D9FF75C0DAFFDECF01F012
:10188400DDCF02F0B30E036E100E046E000E066E72
:10189400020E056E6AEC3BF001500210D8B455EF0D
:1018A4000CF057EF0CF072EF0CF074C0D9FF75C058
:1018B400DAFFDECF01F0DDCF02F0C50E036E100EAD
:1018C400046E000E066E020E056E6AEC3BF00150CB
:1018D4000210D8A470EF0CF072EF0CF0C9EF0CF00A
:1018E400020E74C0D9FF75C0DAFFDE26000EDD22B9
:1018F40072C056F073C057F0910E586E000E596EB8
:10190400BDEC35F056C0A3F057C0A4F00001D1518E
:10191400D211D8A490EF0CF092EF0CF0B2EF09F0D2
:10192400A4BF9DEF0CF0A45108E1A305D8A09DEF3E
:101934000CF09FEF0CF0B2EF09F076C0D9FF77C03E
:10194400DAFFDFCF78F0020EDE26DFCF79F0000E6B
:10195400DD2278C0D9FF79C0DAFFDECFA1F0DDCF78
:10196400A2F0A1C0D9FFA2C0DAFF91C0DEFF92C0ED
:10197400DEFF93C0DEFF94C0DEFF95C0DEFF96C09D
:10198400DEFF97C0DEFF98C0DEFFB2EF09F074C03F
:10199400D9FF75C0DAFFDECF01F0DDCF02F0B60E5D
:1019A400036E100E046E000E066E020E056E6AECD7
:1019B4003BF001500210D8B4E2EF0CF0E4EF0CF06D
:1019C400FFEF0CF074C0D9FF75C0DAFFDECF01F071
:1019D400DDCF02F0C80E036E100E046E000E066E0C
:1019E400020E056E6AEC3BF001500210D8A4FDEF24
:1019F4000CF0FFEF0CF04EEF0DF0020E74C0D9FFA7
:101A040075C0DAFFDE26000EDD2272C056F073C008
:101A140057F0910E586E000E596EBDEC35F056C05D
:101A2400A3F057C0A4F00001D151D211D8A41DEFE6
:101A34000DF01FEF0DF0B2EF09F0A4BF2AEF0DF087
:101A4400A45108E1A305D8A02AEF0DF02CEF0DF066
:101A5400B2EF09F076C0D9FF77C0DAFFDFCF78F0B4
:101A6400020EDE26DFCF79F0000EDD2278C0D9FF2A
:101A740079C0DAFFDECFA1F0DDCFA2F0A1C0D9FF9B
:101A8400A2C0DAFF91C0DEFF92C0DEFF93C0DEFF8A
:101A940094C0DEFFB2EF09F074C0D9FF75C0DAFF5D
:101AA400DECF01F0DDCF02F0B90E036E100E046E2E
:101AB400000E066E020E056E6AEC3BF00150021039
:101AC400D8B467EF0DF069EF0DF084EF0DF074C03A
:101AD400D9FF75C0DAFFDECF01F0DDCF02F0CB0E07
:101AE400036E100E046E000E066E020E056E6AEC96
:101AF4003BF001500210D8A482EF0DF084EF0DF0FA
:101B0400CFEF0DF0020E74C0D9FF75C0DAFFDE26E8
:101B1400000EDD2272C056F073C057F0910E586E5D
:101B2400000E596EBDEC35F056C0A3F057C0A4F0BA
:101B34000001D151D211D8A4A2EF0DF0A4EF0DF001
:101B4400B2EF09F0A4BFAFEF0DF0A45108E1A30573
:101B5400D8A0AFEF0DF0B1EF0DF0B2EF09F076C001
:101B6400D9FF77C0DAFFDFCF78F0020EDE26DFCFB1
:101B740079F0000EDD2278C0D9FF79C0DAFFDECF1C
:101B8400A1F0DDCFA2F0A1C0D9FFA2C0DAFF91C0BD
:101B9400DEFF92C0DDFFB2EF09F0610E00018A1989
:101BA400D8B4D7EF0DF0D9EF0DF0F4EF0DF0650ECA
:101BB4008A19D8B4E0EF0DF0E2EF0DF0F4EF0DF078
:101BC400660E8A19D8B4E9EF0DF0EBEF0DF0F4EFDF
:101BD4000DF0670E8A19D8A4F2EF0DF0F4EF0DF0B2
:101BE40042EF0EF074C0D9FF75C0DAFFDE2A000E92
:101BF400DD2272C040F073C041F08D0E426E000EC3
:101C0400436E64EC33F040C0A3F041C0A4F0000183
:101C1400D151D211D8A411EF0EF013EF0EF0B2EFA0
:101C240009F0A4BF1EEF0EF0A45108E1A305D8A04B
:101C34001EEF0EF020EF0EF0B2EF09F076C0D9FFE0
:101C440077C0DAFFDFCF78F0020EDE26DFCF79F03F
:101C5400000EDD2278C0D9FF79C0DAFFDECFA1F013
:101C6400DDCFA2F0A1C0D9FFA2C0DAFF8DC0DEFF94
:101C74008EC0DEFF8FC0DEFF90C0DEFFB2EF09F042
:101C84008A0E016E000E026EB00E036E100E046E0C
:101C9400000E066E020E056E6AEC3BF00150021057
:101CA400D8B457EF0EF059EF0EF09EEF0EF08A0EF7
:101CB400016E000E026EBC0E036E100E046E000E5A
:101CC400066E020E056E6AEC3BF001500210D8B4A9
:101CD4006EEF0EF070EF0EF09EEF0EF08A0E016EB6
:101CE400000E026EBF0E036E100E046E000E066E22
:101CF400020E056E6AEC3BF001500210D8B485EF79
:101D04000EF087EF0EF09EEF0EF08A0E016E000EBD
:101D1400026EC20E036E100E046E000E066E020EEC
:101D2400056E6AEC3BF001500210D8A49CEF0EF053
:101D34009EEF0EF03DEF0FF072C040F073C041F023
:101D44008D0E426E000E436E64EC33F040C0A3F07F
:101D540041C0A4F00001D151D211D8A4B4EF0EF0C7
:101D6400B6EF0EF033EF0FF0A4BFC1EF0EF0A451A5
:101D740008E1A305D8A0C1EF0EF0C3EF0EF033EFD6
:101D84000FF0BF0E786FFF0E796F74C0D9FF75C066
:101D9400DAFFDECFF6FFDDCFF7FF000EF86E0800A6
:101DA400F5507A6F7B6B78517A2779517B237B517D
:101DB4000AE11A0E7A5DD8A0E2EF0EF0E5EF0EF01C
:101DC400010EE6EF0EF0000E866F876B86518711C9
:101DD400D8B4EFEF0EF0F1EF0EF013EF0FF076C082
:101DE400D9FF77C0DAFFDFCF78F0020EDE26DFCF2F
:101DF40079F0000EDD2278C0D9FF79C0DAFFDECF9A
:101E0400A1F0DDCFA2F0A1C0D9FFA2C0DAFF8DC03E
:101E1400DEFF8EC0DEFF8FC0DEFF90C0DEFF33EF3B
:101E24000FF076C0D9FF77C0DAFFDFCF78F0020E6B
:101E3400DE26DFCF79F0000EDD2278C0D9FF79C02D
:101E4400DAFFDECFA1F0DDCFA2F0A1C0D9FFA2C09E
:101E5400DAFF8DC0DEFF8EC0DEFF8FC0DEFF90C0D4
:101E6400DEFF020E74C0D9FF75C0DAFFDE26000E55
:101E7400DD22B2EF09F074C0D9FF75C0DAFFDECFFE
:101E840001F0DDCF02F0870E036E100E046E000E1B
:101E9400066E030E056E6AEC3BF001500210D8A4E6
:101EA40056EF0FF058EF0FF0A1EF0FF0030E74C0D0
:101EB400D9FF75C0DAFFDE26000EDD2272C056F0AF
:101EC40073C057F0990E586E000E596EC6EC36F07A
:101ED40056C0A3F057C0A4F00001D151D211D8A428
:101EE40076EF0FF078EF0FF0B2EF09F0A4BF83EFB5
:101EF4000FF0A45108E1A305D8A083EF0FF085EFFC
:101F04000FF0B2EF09F076C0D9FF77C0DAFFDFCF68
:101F140078F0020EDE26DFCF79F0000EDD2278C0E5
:101F2400D9FF79C0DAFFDECFA1F0DDCFA2F0A1C0E6
:101F3400D9FFA2C0DAFF99C0DFFFB2EF09F074C085
:101F4400D9FF75C0DAFFDECF01F0DDCF02F0880ED5
:101F5400036E100E046E000E066E020E056E6AEC21
:101F64003BF001500210D8A4BAEF0FF0BCEF0FF011
:101F740007EF10F0020E74C0D9FF75C0DAFFDE2639
:101F8400000EDD2272C056F073C057F0990E586EE1
:101F9400000E596EC6EC36F056C0A3F057C0A4F03C
:101FA4000001D151D211D8A4DAEF0FF0DCEF0FF019
:101FB400B2EF09F0A4BFE7EF0FF0A45108E1A305C5
:101FC400D8A0E7EF0FF0E9EF0FF0B2EF09F076C019
:101FD400D9FF77C0DAFFDFCF78F0020EDE26DFCF3D
:101FE40079F0000EDD2278C0D9FF79C0DAFFDECFA8
:101FF400A1F0DDCFA2F0A1C0D9FFA2C0DAFF99C041
:10200400DEFF9AC0DDFFB2EF09F074C0D9FF75C0DE
:10201400DAFFDECFF6FFDDCFF7FF000EF86E080023
:10202400F5506F0AD8A419EF10F01BEF10F065EF0C
:1020340010F074C0D9FF75C0DAFFDE2A000EDD226D
:1020440072C056F073C057F0990E586E000E596E58
:10205400C6EC36F056C0A3F057C0A4F00001D1512D
:10206400D211D8A438EF10F03AEF10F0B2EF09F023
:10207400A4BF45EF10F0A45108E1A305D8A045EF93
:1020840010F047EF10F0B2EF09F076C0D9FF77C037
:10209400DAFFDFCF78F0020EDE26DFCF79F0000E14
:1020A400DD2278C0D9FF79C0DAFFDECFA1F0DDCF21
:1020B400A2F0A1C0D9FFA2C0DAFF99C0DEFF9AC086
:1020C400DDFFB2EF09F074C0D9FF75C0DAFFDECFCF
:1020D40001F0DDCF02F08C0E036E100E046E000EC4
:1020E400066E020E056E6AEC3BF001500210D8A495
:1020F4007EEF10F080EF10F0CFEF10F0020E74C0FE
:10210400D9FF75C0DAFFDE26000EDD2272C056F05C
:1021140073C057F0990E586E000E596EC6EC36F027
:1021240056C0A3F057C0A4F00001D151D211D8A4D5
:102134009EEF10F0A0EF10F0B2EF09F0A4BFABEFE8
:1021440010F0A45108E1A305D8A0ABEF10F0ADEF57
:1021540010F0B2EF09F076C0D9FF77C0DAFFDFCF15
:1021640078F0020EDE26DFCF79F0000EDD2278C093
:10217400D9FF79C0DAFFDECFA1F0DDCFA2F0A1C094
:10218400D9FFA2C0DAFF99C0DEFF9AC0DEFF9BC070
:10219400DEFF9CC0DEFFB2EF09F074C0D9FF75C04A
:1021A400DAFFDECF01F0DDCF02F08B0E036E100EEE
:1021B400046E000E066E030E056E6AEC3BF00150D1
:1021C4000210D8A4E8EF10F0EAEF10F041EF11F09C
:1021D400030E74C0D9FF75C0DAFFDE26000EDD22BF
:1021E40072C056F073C057F0990E586E000E596EB7
:1021F400C6EC36F056C0A3F057C0A4F00001D1518C
:10220400D211D8A408EF11F00AEF11F0B2EF09F0DF
:10221400A4BF15EF11F0A45108E1A305D8A015EF50
:1022240011F017EF11F0B2EF09F076C0D9FF77C0C3
:10223400DAFFDFCF78F0020EDE26DFCF79F0000E72
:10224400DD2278C0D9FF79C0DAFFDECFA1F0DDCF7F
:10225400A2F0A1C0D9FFA2C0DAFF99C0DEFF9AC0E4
:10226400DEFF9BC0DEFF9CC0DEFF9DC0DEFF9EC084
:10227400DEFF9FC0DEFFA0C0DEFFB2EF09F074C036
:10228400D9FF75C0DAFFDECF01F0DDCF02F0D70E43
:10229400036E100E046E000E066E020E056E6AECDE
:1022A4003BF001500210D8A45AEF11F05CEF11F08A
:1022B400B3EF11F0020E74C0D9FF75C0DAFFDE2649
:1022C400000EDD2272C056F073C057F0990E586E9E
:1022D400000E596EC6EC36F056C0A3F057C0A4F0F9
:1022E4000001D151D211D8A47AEF11F07CEF11F092
:1022F400B2EF09F0A4BF87EF11F0A45108E1A305E0
:10230400D8A087EF11F089EF11F0B2EF09F076C091
:10231400D9FF77C0DAFFDFCF78F0020EDE26DFCFF9
:1023240079F0000EDD2278C0D9FF79C0DAFFDECF64
:10233400A1F0DDCFA2F0A1C0D9FFA2C0DAFF99C0FD
:10234400DEFF9AC0DEFF9BC0DEFF9CC0DEFF9DC0A7
:10235400DEFF9EC0DEFF9FC0DEFFA0C0DEFFB2EF47
:1023640009F074C0D9FF75C0DAFFDECF01F0DDCF0C
:1023740002F0DA0E036E100E046E000E066E020EEC
:10238400056E6AEC3BF001500210D8A4CCEF11F0BA
:10239400CEEF11F01DEF12F0020E74C0D9FF75C01C
:1023A400DAFFDE26000EDD2272C056F073C057F04D
:1023B400990E586E000E596EC6EC36F056C0A3F056
:1023C40057C0A4F00001D151D211D8A4ECEF11F000
:1023D400EEEF11F0B2EF09F0A4BFF9EF11F0A45140
:1023E40008E1A305D8A0F9EF11F0FBEF11F0B2EF6B
:1023F40009F076C0D9FF77C0DAFFDFCF78F0020E9C
:10240400DE26DFCF79F0000EDD2278C0D9FF79C057
:10241400DAFFDECFA1F0DDCFA2F0A1C0D9FFA2C0C8
:10242400DAFF99C0DEFF9AC0DEFF9BC0DEFF9CC0CE
:10243400DEFFB2EF09F074C0D9FF75C0DAFFDECF5A
:1024440001F0DDCF02F0DD0E036E100E046E000EFF
:10245400066E020E056E6AEC3BF001500210D8A421
:1024640036EF12F038EF12F083EF12F0020E74C060
:10247400D9FF75C0DAFFDE26000EDD2272C056F0E9
:1024840073C057F0990E586E000E596EC6EC36F0B4
:1024940056C0A3F057C0A4F00001D151D211D8A462
:1024A40056EF12F058EF12F0B2EF09F0A4BF63EF49
:1024B40012F0A45108E1A305D8A063EF12F065EF70
:1024C40012F0B2EF09F076C0D9FF77C0DAFFDFCFA0
:1024D40078F0020EDE26DFCF79F0000EDD2278C020
:1024E400D9FF79C0DAFFDECFA1F0DDCFA2F0A1C021
:1024F400D9FFA2C0DAFF99C0DEFF9AC0DDFFB2EFB8
:1025040009F074C0D9FF75C0DAFFDECF01F0DDCF6A
:1025140002F07F0E036E100E046E000E066E030EA4
:10252400056E6AEC3BF001500210D8A49CEF12F047
:102534009EEF12F0C7EF12F0030E74C0D9FF75C0FE
:10254400DAFFDE26000EDD2276C0D9FF77C0DAFF7F
:10255400DFCF78F0020EDE26DFCF79F0000EDD2229
:1025640078C0D9FF79C0DAFFDECFA1F0DDCFA2F0C9
:10257400A1C0D9FFA2C0DAFFCDC0DFFF000E000169
:10258400736F000E726F5AEF1DF074C0D9FF75C0DF
:10259400DAFFDECF01F0DDCF02F0800E036E100E05
:1025A400046E000E066E020E056E6AEC3BF00150DE
:1025B4000210D8A4E0EF12F0E2EF12F008EF13F0EB
:1025C400020E74C0D9FF75C0DAFFDE26000EDD22CC
:1025D40076C0D9FF77C0DAFFDFCF78F0020EDE26AF
:1025E400DFCF79F0000EDD2278C0D9FF79C0DAFFA1
:1025F400DECFA1F0DDCFA2F0A1C0D9FFA2C0DAFFE7
:10260400CDC0DEFFCEC0DDFFC0EF12F074C0D9FF35
:1026140075C0DAFFDECFF6FFDDCFF7FF000EF86EF0
:102624000800F5506E0AD8A41AEF13F01CEF13F04B
:1026340041EF13F074C0D9FF75C0DAFFDE2A000E33
:10264400DD2276C0D9FF77C0DAFFDFCF78F0020E43
:10265400DE26DFCF79F0000EDD2278C0D9FF79C005
:10266400DAFFDECFA1F0DDCFA2F0A1C0D9FFA2C076
:10267400DAFFCDC0DEFFCEC0DDFFC0EF12F074C0C4
:10268400D9FF75C0DAFFDECF01F0DDCF02F0840E92
:10269400036E100E046E000E066E020E056E6AECDA
:1026A4003BF001500210D8A45AEF13F05CEF13F082
:1026B40090EF13F0020E74C0D9FF75C0DAFFDE2666
:1026C400000EDD2276C0D9FF77C0DAFFDFCF78F0C5
:1026D400020EDE26DFCF79F0000EDD2278C0D9FFAE
:1026E40079C0DAFFDECFA1F0DDCFA2F0CDC078F063
:1026F400CEC079F0000E000179BFFF0E7A6F7B6FB8
:10270400A1C0D9FFA2C0DAFF78C0DEFF79C0DEFF26
:102714007AC0DEFF7BC0DEFFC0EF12F074C0D9FFC9
:1027240075C0DAFFDECF01F0DDCF02F0830E036E59
:10273400100E046E000E066E030E056E6AEC3BF07E
:1027440001500210D8A4A9EF13F0ABEF13F0EBEF94
:1027540013F0030E74C0D9FF75C0DAFFDE26000E35
:10276400DD2276C0D9FF77C0DAFFDFCF78F0020E22
:10277400DE26DFCF79F0000EDD2278C0D9FF79C0E4
:10278400DAFFDECFA1F0DDCFA2F0CDC078F0CEC06D
:1027940079F0000E000179BFFF0E7A6F7B6F7C6FBA
:1027A4007D6F7E6F7F6FA1C0D9FFA2C0DAFF78C0B2
:1027B400DEFF79C0DEFF7AC0DEFF7BC0DEFF7CC0B7
:1027C400DEFF7DC0DEFF7EC0DEFF7FC0DEFFC0EF28
:1027D40012F074C0D9FF75C0DAFFDECF01F0DDCF8F
:1027E40002F0CE0E036E100E046E000E066E020E84
:1027F400056E6AEC3BF001500210D8A404EF14F00B
:1028040006EF14F046EF14F0020E74C0D9FF75C041
:10281400DAFFDE26000EDD2276C0D9FF77C0DAFFAC
:10282400DFCF78F0020EDE26DFCF79F0000EDD2256
:1028340078C0D9FF79C0DAFFDECFA1F0DDCFA2F0F6
:10284400CDC078F0CEC079F0000E000179BFFF0E44
:102854007A6F7B6F7C6F7D6F7E6F7F6FA1C0D9FFB6
:10286400A2C0DAFF78C0DEFF79C0DEFF7AC0DEFFE7
:102874007BC0DEFF7CC0DEFF7DC0DEFF7EC0DEFFEE
:102884007FC0DEFFC0EF12F074C0D9FF75C0DAFF5D
:10289400DECF01F0DDCF02F0D10E036E100E046E18
:1028A400000E066E020E056E6AEC3BF0015002103B
:1028B400D8A45FEF14F061EF14F095EF14F0020E5A
:1028C40074C0D9FF75C0DAFFDE26000EDD2276C0A3
:1028D400D9FF77C0DAFFDFCF78F0020EDE26DFCF34
:1028E40079F0000EDD2278C0D9FF79C0DAFFDECF9F
:1028F400A1F0DDCFA2F0CDC078F0CEC079F0000E0B
:10290400000179BFFF0E7A6F7B6FA1C0D9FFA2C00F
:10291400DAFF78C0DEFF79C0DEFF7AC0DEFF7BC05D
:10292400DEFFC0EF12F074C0D9FF75C0DAFFDECF4E
:1029340001F0DDCF02F0D40E036E100E046E000E13
:10294400066E020E056E6AEC3BF001500210D8A42C
:10295400AEEF14F0B0EF14F0D6EF14F0020E74C022
:10296400D9FF75C0DAFFDE26000EDD2276C0D9FF5E
:1029740077C0DAFFDFCF78F0020EDE26DFCF79F002
:10298400000EDD2278C0D9FF79C0DAFFDECFA1F0D6
:10299400DDCFA2F0A1C0D9FFA2C0DAFFCDC0DEFF17
:1029A400CEC0DDFFC0EF12F074C0D9FF75C0DAFFEE
:1029B400DECFF6FFDDCFF7FF000EF86E0800F5500E
:1029C400700AD8A4E8EF14F0EAEF14F038EF15F029
:1029D40074C0D9FF75C0DAFFDE2A000EDD2272C092
:1029E40056F073C057F0990E586E000E596E7CEC79
:1029F40038F056C0A3F057C0A4F00001D151D21151
:102A0400D8A407EF15F009EF15F0B2EF09F0A4BF51
:102A140014EF15F0A45108E1A305D8A014EF15F0A4
:102A240016EF15F0B2EF09F076C0D9FF77C0DAFFE0
:102A3400DFCF78F0020EDE26DFCF79F0000EDD2244
:102A440078C0D9FF79C0DAFFDECF82F0DDCF83F022
:102A540082C0D9FF83C0DAFF99C0DEFF9AC0DEFFCF
:102A64009BC0DEFF9CC0DEFFB2EF09F074C0D9FF4B
:102A740075C0DAFFDECFF6FFDDCFF7FF000EF86E8C
:102A84000800F550730AD8A44AEF15F04CEF15F07E
:102A940091EF15F074C0D9FF75C0DAFFDE2A000E7D
:102AA400DD220001D151D211D8A45BEF15F05DEF06
:102AB40015F081EF15F076C0D9FF77C0DAFFDFCFCC
:102AC40078F0020EDE26DFCF79F0000EDD2278C02A
:102AD400D9FF79C0DAFFDECF80F0DDCF81F072C09C
:102AE40017F073C018F080C019F081C01AF024ECFC
:102AF4003AF017C0A3F018C0A4F0B2EF09F072C006
:102B040017F073C018F0000E196E000E1A6E24EC44
:102B14003AF017C0A3F018C0A4F0B2EF09F074C0E3
:102B2400D9FF75C0DAFFDECF01F0DDCF02F08F0EE2
:102B3400036E100E046E000E066E030E056E6AEC34
:102B44003BF001500210D8A4AAEF15F0ACEF15F039
:102B5400F5EF15F0030E74C0D9FF75C0DAFFDE2659
:102B6400000EDD2272C056F073C057F0990E586EF5
:102B7400000E596EB4EC34F056C0A3F057C0A4F064
:102B84000001D151D211D8A4CAEF15F0CCEF15F041
:102B9400B2EF09F0A4BFD7EF15F0A45108E1A305E3
:102BA400D8A0D7EF15F0D9EF15F0B2EF09F076C041
:102BB400D9FF77C0DAFFDFCF78F0020EDE26DFCF51
:102BC40079F0000EDD2278C0D9FF79C0DAFFDECFBC
:102BD400A1F0DDCFA2F0A1C0D9FFA2C0DAFF99C055
:102BE400DFFFB2EF09F074C0D9FF75C0DAFFDECFA2
:102BF40001F0DDCF02F0900E036E100E046E000E95
:102C0400066E020E056E6AEC3BF001500210D8A469
:102C14000EEF16F010EF16F05BEF16F0020E74C014
:102C2400D9FF75C0DAFFDE26000EDD2272C056F031
:102C340073C057F0990E586E000E596EB4EC34F010
:102C440056C0A3F057C0A4F00001D151D211D8A4AA
:102C54002EEF16F030EF16F0B2EF09F0A4BF3BEF01
:102C640016F0A45108E1A305D8A03BEF16F03DEF00
:102C740016F0B2EF09F076C0D9FF77C0DAFFDFCFE4
:102C840078F0020EDE26DFCF79F0000EDD2278C068
:102C9400D9FF79C0DAFFDECFA1F0DDCFA2F0A1C069
:102CA400D9FFA2C0DAFF99C0DEFF9AC0DDFFB2EF00
:102CB40009F074C0D9FF75C0DAFFDECFF6FFDDCFAF
:102CC400F7FF000EF86E0800F550750AD8A46DEFF2
:102CD40016F06FEF16F0B9EF16F074C0D9FF75C097
:102CE400DAFFDE2A000EDD2272C056F073C057F000
:102CF400990E586E000E596EB4EC34F056C0A3F021
:102D040057C0A4F00001D151D211D8A48CEF16F011
:102D14008EEF16F0B2EF09F0A4BF99EF16F0A451AC
:102D240008E1A305D8A099EF16F09BEF16F0B2EFD7
:102D340009F076C0D9FF77C0DAFFDFCF78F0020E52
:102D4400DE26DFCF79F0000EDD2278C0D9FF79C00E
:102D5400DAFFDECFA1F0DDCFA2F0A1C0D9FFA2C07F
:102D6400DAFF99C0DEFF9AC0DDFFB2EF09F074C04C
:102D7400D9FF75C0DAFFDECF01F0DDCF02F0940E8B
:102D8400036E100E046E000E066E020E056E6AECE3
:102D94003BF001500210D8A4D2EF16F0D4EF16F095
:102DA40023EF17F0020E74C0D9FF75C0DAFFDE26D8
:102DB400000EDD2272C056F073C057F0990E586EA3
:102DC400000E596EB4EC34F056C0A3F057C0A4F012
:102DD4000001D151D211D8A4F2EF16F0F4EF16F09D
:102DE400B2EF09F0A4BFFFEF16F0A45108E1A30568
:102DF400D8A0FFEF16F001EF17F0B2EF09F076C09C
:102E0400D9FF77C0DAFFDFCF78F0020EDE26DFCFFE
:102E140079F0000EDD2278C0D9FF79C0DAFFDECF69
:102E2400A1F0DDCFA2F0A1C0D9FFA2C0DAFF99C002
:102E3400DEFF9AC0DEFF9BC0DEFF9CC0DEFFB2EF68
:102E440009F074C0D9FF75C0DAFFDECF01F0DDCF21
:102E540002F0930E036E100E046E000E066E030E47
:102E6400056E6AEC3BF001500210D8A43CEF17F059
:102E74003EEF17F095EF17F0030E74C0D9FF75C03D
:102E8400DAFFDE26000EDD2272C056F073C057F062
:102E9400990E586E000E596EB4EC34F056C0A3F07F
:102EA40057C0A4F00001D151D211D8A45CEF17F09F
:102EB4005EEF17F0B2EF09F0A4BF69EF17F0A45169
:102EC40008E1A305D8A069EF17F06BEF17F0B2EF94
:102ED40009F076C0D9FF77C0DAFFDFCF78F0020EB1
:102EE400DE26DFCF79F0000EDD2278C0D9FF79C06D
:102EF400DAFFDECFA1F0DDCFA2F0A1C0D9FFA2C0DE
:102F0400DAFF99C0DEFF9AC0DEFF9BC0DEFF9CC0E3
:102F1400DEFF9DC0DEFF9EC0DEFF9FC0DEFFA0C0BF
:102F2400DEFFB2EF09F074C0D9FF75C0DAFFDECF5F
:102F340001F0DDCF02F0E00E036E100E046E000E01
:102F4400066E020E056E6AEC3BF001500210D8A426
:102F5400AEEF17F0B0EF17F007EF18F0020E74C0E1
:102F6400D9FF75C0DAFFDE26000EDD2272C056F0EE
:102F740073C057F0990E586E000E596EB4EC34F0CD
:102F840056C0A3F057C0A4F00001D151D211D8A467
:102F9400CEEF17F0D0EF17F0B2EF09F0A4BFDBEFDC
:102FA40017F0A45108E1A305D8A0DBEF17F0DDEF7B
:102FB40017F0B2EF09F076C0D9FF77C0DAFFDFCFA0
:102FC40078F0020EDE26DFCF79F0000EDD2278C025
:102FD400D9FF79C0DAFFDECFA1F0DDCFA2F0A1C026
:102FE400D9FFA2C0DAFF99C0DEFF9AC0DEFF9BC002
:102FF400DEFF9CC0DEFF9DC0DEFF9EC0DEFF9FC0E3
:10300400DEFFA0C0DEFFB2EF09F074C0D9FF75C0C7
:10301400DAFFDECF01F0DDCF02F0E30E036E100E17
:10302400046E000E066E020E056E6AEC3BF0015053
:103034000210D8A420EF18F022EF18F071EF18F066
:10304400020E74C0D9FF75C0DAFFDE26000EDD2241
:1030540072C056F073C057F0990E586E000E596E38
:10306400B4EC34F056C0A3F057C0A4F00001D15121
:10307400D211D8A440EF18F042EF18F0B2EF09F0E3
:10308400A4BF4DEF18F0A45108E1A305D8A04DEF5B
:1030940018F04FEF18F0B2EF09F076C0D9FF77C0FF
:1030A400DAFFDFCF78F0020EDE26DFCF79F0000EF4
:1030B400DD2278C0D9FF79C0DAFFDECFA1F0DDCF01
:1030C400A2F0A1C0D9FFA2C0DAFF99C0DEFF9AC066
:1030D400DEFF9BC0DEFF9CC0DEFFB2EF09F074C0D0
:1030E400D9FF75C0DAFFDECF01F0DDCF02F0E60EC6
:1030F400036E100E046E000E066E020E056E6AEC70
:103104003BF001500210D8A48AEF18F08CEF18F0AD
:10311400D7EF18F0020E74C0D9FF75C0DAFFDE26AF
:10312400000EDD2272C056F073C057F0990E586E2F
:10313400000E596EB4EC34F056C0A3F057C0A4F09E
:103144000001D151D211D8A4AAEF18F0ACEF18F0B5
:10315400B2EF09F0A4BFB7EF18F0A45108E1A3053A
:10316400D8A0B7EF18F0B9EF18F0B2EF09F076C0B5
:10317400D9FF77C0DAFFDFCF78F0020EDE26DFCF8B
:1031840079F0000EDD2278C0D9FF79C0DAFFDECFF6
:10319400A1F0DDCFA2F0A1C0D9FFA2C0DAFF99C08F
:1031A400DEFF9AC0DDFFB2EF09F074C0D9FF75C02D
:1031B400DAFFDECF01F0DDCF02F0970E036E100EC2
:1031C400046E000E066E030E056E6AEC3BF00150B1
:1031D4000210D8B4F0EF18F0F2EF18F00DEF19F078
:1031E40074C0D9FF75C0DAFFDECF01F0DDCF02F085
:1031F400670E036E100E046E000E066E030E056E4F
:103204006AEC3BF001500210D8A40BEF19F00DEF5B
:1032140019F056EF19F0030E74C0D9FF75C0DAFF28
:10322400DE26000EDD2272C056F073C057F0990EF0
:10323400586E000E596E7CEC38F056C0A3F057C09F
:10324400A4F00001D151D211D8A42BEF19F02DEF25
:1032540019F0B2EF09F0A4BF38EF19F0A45108E156
:10326400A305D8A038EF19F03AEF19F0B2EF09F03E
:1032740076C0D9FF77C0DAFFDFCF78F0020EDE2602
:10328400DFCF79F0000EDD2278C0D9FF79C0DAFFF4
:10329400DECFA1F0DDCFA2F0A1C0D9FFA2C0DAFF3A
:1032A40099C0DFFFB2EF09F074C0D9FF75C0DAFF2F
:1032B400DECF01F0DDCF02F0980E036E100E046E27
:1032C400000E066E020E056E6AEC3BF00150021011
:1032D400D8B46FEF19F071EF19F08CEF19F074C0D6
:1032E400D9FF75C0DAFFDECF01F0DDCF02F0680E42
:1032F400036E100E046E000E066E020E056E6AEC6E
:103304003BF001500210D8A48AEF19F08CEF19F0A9
:10331400D7EF19F0020E74C0D9FF75C0DAFFDE26AC
:10332400000EDD2272C056F073C057F0990E586E2D
:10333400000E596E7CEC38F056C0A3F057C0A4F0D0
:103344000001D151D211D8A4AAEF19F0ACEF19F0B1
:10335400B2EF09F0A4BFB7EF19F0A45108E1A30537
:10336400D8A0B7EF19F0B9EF19F0B2EF09F076C0B1
:10337400D9FF77C0DAFFDFCF78F0020EDE26DFCF89
:1033840079F0000EDD2278C0D9FF79C0DAFFDECFF4
:10339400A1F0DDCFA2F0A1C0D9FFA2C0DAFF99C08D
:1033A400DEFF9AC0DDFFB2EF09F074C0D9FF75C02B
:1033B400DAFFDECFF6FFDDCFF7FF000EF86E080070
:1033C400F550780AD8B4E9EF19F0EBEF19F0FFEFF4
:1033D40019F074C0D9FF75C0DAFFDECFF6FFDDCF78
:1033E400F7FF000EF86E0800F550580AD8A4FDEF58
:1033F40019F0FFEF19F049EF1AF074C0D9FF75C046
:10340400DAFFDE2A000EDD2272C056F073C057F0D8
:10341400990E586E000E596E7CEC38F056C0A3F02D
:1034240057C0A4F00001D151D211D8A41CEF1AF056
:103434001EEF1AF0B2EF09F0A4BF29EF1AF0A4515D
:1034440008E1A305D8A029EF1AF02BEF1AF0B2EF88
:1034540009F076C0D9FF77C0DAFFDFCF78F0020E2B
:10346400DE26DFCF79F0000EDD2278C0D9FF79C0E7
:10347400DAFFDECFA1F0DDCFA2F0A1C0D9FFA2C058
:10348400DAFF99C0DEFF9AC0DDFFB2EF09F074C025
:10349400D9FF75C0DAFFDECF01F0DDCF02F09C0E5C
:1034A400036E100E046E000E066E020E056E6AECBC
:1034B4003BF001500210D8B462EF1AF064EF1AF036
:1034C4007FEF1AF074C0D9FF75C0DAFFDECF01F0C8
:1034D400DDCF02F06C0E036E100E046E000E066E4D
:1034E400020E056E6AEC3BF001500210D8A47DEF89
:1034F4001AF07FEF1AF0CEEF1AF0020E74C0D9FF63
:1035040075C0DAFFDE26000EDD2272C056F073C0ED
:1035140057F0990E586E000E596E7CEC38F056C078
:10352400A3F057C0A4F00001D151D211D8A49DEF4B
:103534001AF09FEF1AF0B2EF09F0A4BFAAEF1AF045
:10354400A45108E1A305D8A0AAEF1AF0ACEF1AF031
:10355400B2EF09F076C0D9FF77C0DAFFDFCF78F099
:10356400020EDE26DFCF79F0000EDD2278C0D9FF0F
:1035740079C0DAFFDECFA1F0DDCFA2F0A1C0D9FF80
:10358400A2C0DAFF99C0DEFF9AC0DEFF9BC0DEFF57
:103594009CC0DEFFB2EF09F074C0D9FF75C0DAFF3A
:1035A400DECF01F0DDCF02F09B0E036E100E046E31
:1035B400000E066E030E056E6AEC3BF0015002101D
:1035C400D8B4E7EF1AF0E9EF1AF004EF1BF074C077
:1035D400D9FF75C0DAFFDECF01F0DDCF02F06B0E4C
:1035E400036E100E046E000E066E030E056E6AEC7A
:1035F4003BF001500210D8A402EF1BF004EF1BF0C3
:103604005BEF1BF0030E74C0D9FF75C0DAFFDE2632
:10361400000EDD2272C056F073C057F0990E586E3A
:10362400000E596E7CEC38F056C0A3F057C0A4F0DD
:103634000001D151D211D8A422EF1BF024EF1BF0CA
:10364400B2EF09F0A4BF2FEF1BF0A45108E1A305CA
:10365400D8A02FEF1BF031EF1BF0B2EF09F076C0CA
:10366400D9FF77C0DAFFDFCF78F0020EDE26DFCF96
:1036740079F0000EDD2278C0D9FF79C0DAFFDECF01
:10368400A1F0DDCFA2F0A1C0D9FFA2C0DAFF99C09A
:10369400DEFF9AC0DEFF9BC0DEFF9CC0DEFF9DC044
:1036A400DEFF9EC0DEFF9FC0DEFFA0C0DEFFB2EFE4
:1036B40009F074C0D9FF75C0DAFFDECF01F0DDCFA9
:1036C40002F0E90E036E100E046E000E066E020E7A
:1036D400056E6AEC3BF001500210D8B474EF1BF095
:1036E40076EF1BF091EF1BF074C0D9FF75C0DAFFC1
:1036F400DECF01F0DDCF02F0A70E036E100E046ED4
:10370400000E066E020E056E6AEC3BF001500210CC
:10371400D8A48FEF1BF091EF1BF0E8EF1BF0020E23
:1037240074C0D9FF75C0DAFFDE26000EDD2272C038
:1037340056F073C057F0990E586E000E596E7CEC1B
:1037440038F056C0A3F057C0A4F00001D151D211F3
:10375400D8A4AFEF1BF0B1EF1BF0B2EF09F0A4BF98
:10376400BCEF1BF0A45108E1A305D8A0BCEF1BF0EB
:10377400BEEF1BF0B2EF09F076C0D9FF77C0DAFFD5
:10378400DFCF78F0020EDE26DFCF79F0000EDD22E7
:1037940078C0D9FF79C0DAFFDECFA1F0DDCFA2F087
:1037A400A1C0D9FFA2C0DAFF99C0DEFF9AC0DEFF34
:1037B4009BC0DEFF9CC0DEFF9DC0DEFF9EC0DEFF1F
:1037C4009FC0DEFFA0C0DEFFB2EF09F074C0D9FFD6
:1037D40075C0DAFFDECF01F0DDCF02F0EC0E036E30
:1037E400100E046E000E066E020E056E6AEC3BF0BF
:1037F40001500210D8B401EF1CF003EF1CF01EEFCF
:103804001CF074C0D9FF75C0DAFFDECF01F0DDCF44
:1038140002F0AA0E036E100E046E000E066E020E67
:10382400056E6AEC3BF001500210D8A41CEF1CF0AA
:103834001EEF1CF06DEF1CF0020E74C0D9FF75C0B2
:10384400DAFFDE26000EDD2272C056F073C057F098
:10385400990E586E000E596E7CEC38F056C0A3F0E9
:1038640057C0A4F00001D151D211D8A43CEF1CF0F0
:103874003EEF1CF0B2EF09F0A4BF49EF1CF0A451D5
:1038840008E1A305D8A049EF1CF04BEF1CF0B2EF00
:1038940009F076C0D9FF77C0DAFFDFCF78F0020EE7
:1038A400DE26DFCF79F0000EDD2278C0D9FF79C0A3
:1038B400DAFFDECFA1F0DDCFA2F0A1C0D9FFA2C014
:1038C400DAFF99C0DEFF9AC0DEFF9BC0DEFF9CC01A
:1038D400DEFFB2EF09F074C0D9FF75C0DAFFDECFA6
:1038E40001F0DDCF02F0EF0E036E100E046E000E39
:1038F400066E020E056E6AEC3BF001500210D8B45D
:1039040086EF1CF088EF1CF0A3EF1CF074C0D9FF05
:1039140075C0DAFFDECF01F0DDCF02F0AD0E036E2D
:10392400100E046E000E066E020E056E6AEC3BF07D
:1039340001500210D8A4A1EF1CF0A3EF1CF0EEEF8D
:103944001CF0020E74C0D9FF75C0DAFFDE26000E2B
:10395400DD2272C056F073C057F0990E586E000EF7
:10396400596E7CEC38F056C0A3F057C0A4F00001A7
:10397400D151D211D8A4C1EF1CF0C3EF1CF0B2EFA7
:1039840009F0A4BFCEEF1CF0A45108E1A305D8A010
:10399400CEEF1CF0D0EF1CF0B2EF09F076C0D9FFE7
:1039A40077C0DAFFDFCF78F0020EDE26DFCF79F0C2
:1039B400000EDD2278C0D9FF79C0DAFFDECFA1F096
:1039C400DDCFA2F0A1C0D9FFA2C0DAFF99C0DEFF0B
:1039D4009AC0DDFFB2EF09F074C0D9FF75C0DAFFF9
:1039E400DECFF6FFDDCFF7FF000EF86E0800F550CE
:1039F400250AD8A400EF1DF002EF1DF012EF1DF010
:103A040074C0D9FF75C0DAFFDE2A000EDD22000182
:103A1400CD4BCE2B000E736F010E726F5AEF1DF05B
:103A240074C0D9FF75C0DAFFDE2A000EDD22C0EFB4
:103A340012F072C003F073C004F097EC3EF003C0C0
:103A440088F004C089F074C0D9FF75C0DAFFDECFF6
:103A5400F6FFDDCFF7FF000EF86E0800F550000109
:103A6400786F796B8851781907E189517919D8A44D
:103A74003EEF1DF040EF1DF04BEF1DF074C0D9FF79
:103A840075C0DAFFDE2A000EDD22CD4BCE2BC0EF4F
:103A940012F088C001F089C002F072C003F073C054
:103AA40004F02EEC3FF0FF0E0001736FFE0E726FF8
:103AB40012001C501D10D8B462EF1DF064EF1DF00D
:103AC40070EF1DF01CC0D9FF1DC0DAFF1AC0DEFF65
:103AD4001BC0DDFF70EF1DF01A4A1B2A010E346E65
:103AE4001AC0D9FF1BC0DAFF200EDE18D8B47DEF50
:103AF4001DF080EF1DF0010E81EF1DF0000E396EF8
:103B04003A6A39503A10D8A48AEF1DF08CEF1DF0B0
:103B1400AEEF1DF0F70E1E6EFF0E1F6E1AC0D9FF1A
:103B24001BC0DAFFDF50206E2050396E3A6A39C06C
:103B340021F03AC022F01E5021261F50222222508A
:103B440009E1050E215CD8A0AAEF1DF0ACEF1DF031
:103B5400AEEF1DF0000E346E34C024F0256A2450FC
:103B64002510D8A4B8EF1DF0BAEF1DF06EEF1DF0CC
:103B7400000E366E2D0E39183A10D8A4C4EF1DF07D
:103B8400C6EF1DF0CCEF1DF0010E366E1A4A1B2A4B
:103B9400D8EF1DF02B0E39183A10D8A4D4EF1DF02D
:103BA400D6EF1DF0D8EF1DF0C8EF1DF0000E3F6EEC
:103BB400DDEF1DF03F2A3F501A24D96E000E1B2062
:103BC400DA6EDF50D8B4E9EF1DF0EBEF1DF021EF12
:103BD4001EF03F501A24D96E000E1B20DA6EDF50FF
:103BE4001E6E280E3F24F66EF76A100EF722F86A4E
:103BF400000EF8220800F5501E18D8B404EF1EF089
:103C040006EF1EF0DCEF1DF03F501A24D96E000EB3
:103C14001B20DA6EDF501E6E1F0E3F24F66EF76A0D
:103C2400100EF722F86A000EF8220800F5501E184C
:103C3400D8B41FEF1EF021EF1EF0DCEF1DF0020ED2
:103C44003F6427EF1EF029EF1EF055EF1EF0000E23
:103C54003B6E000E3C6E800E3D6E7F0E3E6E1C5021
:103C64001D10D8B438EF1EF03AEF1EF0F0EF25F037
:103C7400080E3F18D8B441EF1EF043EF1EF045EF95
:103C84001EF0030E3F6E3F501A241E6E000E1B20C2
:103C94001F6E1CC0D9FF1DC0DAFF1EC0DEFF1FC08F
:103CA400DDFFF0EF25F0000E3F6E5AEF1EF03F2AC5
:103CB4003F501A24D96E000E1B20DA6EDF50D8B4A0
:103CC40066EF1EF068EF1EF09EEF1EF03F501A24C0
:103CD400D96E000E1B20DA6EDF501E6E630E3F2479
:103CE400F66EF76A100EF722F86A000EF822080042
:103CF400F5501E18D8B481EF1EF083EF1EF059EF73
:103D04001EF03F501A24D96E000E1B20DA6EDF50CD
:103D14001E6E5B0E3F24F66EF76A100EF722F86AE9
:103D2400000EF8220800F5501E18D8B49CEF1EF0BF
:103D34009EEF1EF059EF1EF0030E3F18D8A4A5EF16
:103D44001EF0A7EF1EF015EF1FF0360E016E100ED9
:103D5400026EFFEC42F001C03BF002C03CF003C035
:103D64003DF004C03EF01C501D10D8B4BCEF1EF052
:103D7400BEEF1EF0F0EF25F03F501A26000E1B2276
:103D84001AC0D9FF1BC0DAFF280EDE18D8A4CDEF65
:103D94001EF0CFEF1EF00BEF1FF0000E3F6ED4EFBE
:103DA4001EF03F2A3F501A24D96E000E1B20DA6EF3
:103DB400DF50D8B4E0EF1EF0E2EF1EF0F1EF1EF09A
:103DC4003F501A24D96E000E1B20DA6E290EDE181D
:103DD400D8A4EFEF1EF0F1EF1EF0D3EF1EF03F502A
:103DE4001A24D96E000E1B20DA6E290EDE18D8A410
:103DF400FEEF1EF000EF1FF00BEF1FF03F501E6EA2
:103E04001F6A010E1E26000E1F221E501A261F5066
:103E14001B221CC0D9FF1DC0DAFF1AC0DEFF1BC065
:103E2400DDFFF0EF25F0000E3A6E000E396E000E45
:103E34003B6E000E3C6E000E3D6E000E3E6E000E9C
:103E4400386E000E376E000E3F6E2AEF1FF03F2AC9
:103E54003F501A24D96E000E1B20DA6E300EDE1885
:103E6400D8B437EF1FF039EF1FF029EF1FF03F50A0
:103E7400D8B43FEF1FF041EF1FF0D8EF22F03F50CE
:103E84001A24D96E000E1B20DA6E780EDE18D8B410
:103E94004EEF1FF050EF1FF05FEF1FF03F501A245A
:103EA400D96E000E1B20DA6E580EDE18D8A45DEF12
:103EB4001FF05FEF1FF0D8EF22F03F501E6E1F6A15
:103EC400010E1E26000E1F221E501A261F501B22F2
:103ED400000E3F6E6FEF1FF03F2A3F501A24D96E39
:103EE400000E1B20DA6E300EDE18D8B47CEF1FF003
:103EF4007EEF1FF06EEF1FF0000E3F6E3F501A244E
:103F0400D96E000E1B20DA6E700EDE18D8B48DEF59
:103F14001FF08FEF1FF01BEF21F03F501A24D96ED2
:103F2400000E1B20DA6E500EDE18D8A49CEF1FF092
:103F34009EEF1FF0A0EF1FF01BEF21F03F501A245B
:103F4400D96E000E1B20DA6E2E0EDE18D8A4ADEF4B
:103F54001FF0AFEF1FF0B3EF1FF036883F2A1BEFBF
:103F640021F03F501A24D96E000E1B20DA6EDF5068
:103F74001E6E1E50016E026AADEC3FF0015002103D
:103F8400D8B4C7EF1FF0C9EF1FF044EF20F0000EC4
:103F9400356ED00E1E6EFF0E1F6E3F501A24D96E62
:103FA400000E1B20DA6EDF50206E216A1E50202680
:103FB4001F50212221500AE10A0E205CD8A0E5EF0F
:103FC4001FF0E8EF1FF0010EE9EF1FF0000E266E60
:103FD400276A26502710D8B4F2EF1FF0F4EF1FF031
:103FE400FFEF1FF03F501A24D96E000E1B20DA6E2B
:103FF400DF50D00F356E0FEF20F03F501A24D96EEA
:10400400000E1B20DA6EDF501E6E1E50076E086A0B
:10401400B4EC40F00750C90F356E3ABE1DEF20F0E6
:104024003A5007E1080E395CD8B01BEF20F01DEFC1
:1040340020F03CEF20F0395007081E6ED8901E3651
:10404400D8901E3635C01FF0206A216A226A1E2AC3
:1040540031EF20F0D8901F362036213622361E2E1E
:104064002CEF20F01F503B1220503C1221503D12E7
:1040740022503E12394A3A2A040E3726000E3822BC
:104084004EEF20F0000E1A6E000E1B6E000E1C6E1A
:10409400000E1D6E11EF26F03F2A80EF1FF03F50F7
:1040A4001A24D96E000E1B20DA6E700EDE18D8B4F6
:1040B4005EEF20F060EF20F022EF21F03F501A2451
:1040C400D96E000E1B20DA6E500EDE18D8A46DEFE8
:1040D40020F06FEF20F071EF20F022EF21F03F503D
:1040E4001A24D96E000E1B20DA6E300EDE18D8A406
:1040F4007EEF20F080EF20F08FEF20F039503A105F
:10410400D8A487EF20F089EF20F08FEF20F0FC0E89
:104114003726FF0E38221AEF21F03F501A24D96EA9
:10412400000E1B20DA6EDF501E6E1E50016E026AF6
:10413400ADEC3FF001500210D8B4A3EF20F0A5EF8E
:1041440020F01AEF21F0000E356ED00E1E6EFF0E19
:104154001F6E3F501A24D96E000E1B20DA6EDF50FA
:10416400206E216A1E5020261F50212221500AE170
:104174000A0E205CD8A0C1EF20F0C4EF20F0010E9D
:10418400C5EF20F0000E286E296A28502910D8B4F3
:10419400CEEF20F0D0EF20F0DBEF20F03F501A24D8
:1041A400D96E000E1B20DA6EDF50D00F356EEBEFA8
:1041B40020F03F501A24D96E000E1B20DA6EDF5017
:1041C4001E6E1E50076E086AB4EC40F00750C90F0B
:1041D400356E3ABEF9EF20F03A5007E1080E395C2B
:1041E400D8B0F7EF20F0F9EF20F018EF21F03950B4
:1041F40007081E6ED8901E36D8901E3635C01FF0A4
:10420400206A216A226A1E2A0DEF21F0D8901F36F7
:104214002036213622361E2E08EF21F01F503B1285
:1042240020503C1221503D1222503E12394A3A2A63
:104234003F2A36B820EF21F022EF21F051EF20F091
:104244003F501A24D96E000E1B20DA6E700EDE1851
:10425400D8B42FEF21F031EF21F04AEF21F03F5095
:104264001A24D96E000E1B20DA6E500EDE18D8B454
:104274003EEF21F040EF21F04AEF21F0000E1A6EDC
:10428400000E1B6E000E1C6E000E1D6E11EF26F04C
:104294003F2A3F501A24D96E000E1B20DA6E2B0ED3
:1042A400DE18D8A458EF21F05AEF21F05DEF21F089
:1042B4003F2A6EEF21F03F501A24D96E000E1B20C6
:1042C400DA6E2D0EDE18D8A46AEF21F06CEF21F01F
:1042D4006EEF21F036863F2A3F501A26000E1B222D
:1042E400000E3F6E77EF21F03F2A3F501A24D96E1B
:1042F400000E1B20DA6E300EDE18D8B484EF21F0E5
:1043040086EF21F076EF21F0000E3A6E000E396E42
:10431400B8EF21F03F50D8B492EF21F094EF21F0A0
:10432400A2EF21F039C001F03AC002F0000E046E91
:104334000A0E036EDBEC42F001C039F002C03AF021
:10434400D00E1E6EFF0E1F6E3F501A24D96E000E43
:104354001B20DA6EDF50206E216A1E5020261F506B
:1043640021222050392621503A223F2AD00E1E6E97
:10437400FF0E1F6E3F501A24D96E000E1B20DA6EFA
:10438400DF50206E216A1E5020261F50212221500A
:104394000AE10A0E205CD8A0D2EF21F0D5EF21F07B
:1043A400010ED6EF21F0000E2A6E2B6A2A502B1034
:1043B400D8A4DFEF21F0E1EF21F08CEF21F03F50A2
:1043C400D8A4E7EF21F0E9EF21F0F3EF21F0000E9C
:1043D4001A6E000E1B6E000E1C6E000E1D6E11EF89
:1043E40026F036A6F8EF21F0FAEF21F0FEEF21F0E7
:1043F400396C3A1ED8B03A2A395037263A50382206
:104404001C501D10D8B409EF22F00BEF22F019EF65
:1044140022F03F501A241E6E000E1B201F6E1CC07B
:10442400D9FF1DC0DAFF1EC0DEFF1FC0DDFF3B50F9
:104434003C103D103E10D8A422EF22F024EF22F0CD
:104444002EEF22F0000E1A6E000E1B6E000E1C6E74
:10445400000E1D6E11EF26F0FF0E3B141E6E000EB3
:104464003C141F6E000E3D14206E000E3E14216E8F
:10447400215020101F1009E1810E1E5CD8A045EFC9
:1044840022F047EF22F059EF22F0000E3B26010EF6
:104494003C22000E3D22000E3E2259EF22F0D8901D
:1044A4003B363C363D363E363706D8A038063EAE5F
:1044B4005EEF22F060EF22F051EF22F038AE6CEFA5
:1044C40022F0830E375CFF0E3858D8B06CEF22F020
:1044D4006EEF22F07AEF22F0FF0E386E810E376E07
:1044E400000E3B6E000E3C6E000E3D6E000E3E6EE6
:1044F400810E371808E13828D8B483EF22F085EF0D
:1045040022F08DEF22F0D8903B363C363D363E36D5
:104514003706D8A0380638BE99EF22F0385009E1A2
:10452400800E375CD8A099EF22F09BEF22F0A7EF22
:1045340022F0000E3B6E000E3C6E000E3D6E000E2F
:104544003E6E000E386E800E376E090E1E6ED890C9
:104554003E323D323C323B321E2EA9EF22F0FF0E9A
:104564003B16FF0E3C167F0E3D16000E3E167F0EC8
:1045740037241E6E000E38201F6EFF0E1E14206E90
:10458400216A226A236A170ED890203621362236F1
:104594002336E82EC6EF22F020503B1221503C1265
:1045A40022503D1223503E12F0EF25F036B8DDEFD5
:1045B40022F0DFEF22F0F1EF22F01AC0D9FF1BC086
:1045C400DAFF2E0EDE18D8A4EAEF22F0ECEF22F088
:1045D400F1EF22F036881A4A1B2AD8EF22F0D00EC7
:1045E4001E6EFF0E1F6E1AC0D9FF1BC0DAFFDF500C
:1045F400206E216A1E5020261F50212221500AE1DC
:104604000A0E205CD8A009EF23F00CEF23F0010E72
:104614000DEF23F0000E2C6E2D6A2C502D10D8A413
:1046240016EF23F018EF23F01AEF23F068EF23F0CE
:104634003682090E39183A10D8B423EF23F025EF47
:1046440023F05BEF23F036A82AEF23F02CEF23F0BE
:104654002FEF23F03706D8A03806394A3A2A3BC050
:1046640001F03CC002F03DC003F03EC004F00A0E6D
:10467400056E000E066E000E076E000E086E1CEC32
:1046840040F001C03BF002C03CF003C03DF004C068
:104694003EF01AC0D9FF1BC0DAFFDF501E6ED00EE9
:1046A4001E261E503B26000E3C223D223E2264EF75
:1046B40023F036B860EF23F062EF23F064EF23F0C9
:1046C400374A382A1A4A1B2AD8EF22F0000E3A6ECB
:1046D400000E396E1AC0D9FF1BC0DAFF650EDE1852
:1046E400D8B477EF23F079EF23F086EF23F01AC0E4
:1046F400D9FF1BC0DAFF450EDE18D8A484EF23F0DF
:1047040086EF23F075EF24F01A4A1B2A1AC0D9FF4A
:104714001BC0DAFF2D0EDE18D8A493EF23F095EF1B
:1047240023F09AEF23F036861A4A1B2AA9EF23F0C6
:104734001AC0D9FF1BC0DAFF2B0EDE18D8A4A5EFD0
:1047440023F0A7EF23F0A9EF23F01A4A1B2A1AC07B
:10475400D9FF1BC0DAFF300EDE18D8B4B4EF23F053
:10476400B6EF23F0A7EF23F0D00E1E6EFF0E1F6EE0
:104774001AC0D9FF1BC0DAFFDF50206E216A1E5019
:1047840020261F50212221500AE10A0E205CD8A0C5
:10479400CEEF23F0D1EF23F0010ED2EF23F0000E81
:1047A4002E6E2F6A2E502F10D8B4DBEF23F0DDEFDE
:1047B40023F06AEF24F01AC0D9FF1BC0DAFFDF50E0
:1047C4001E6ED00E1E261E50396E3A6A1A4A1B2AD5
:1047D400D00E1E6EFF0E1F6E1AC0D9FF1BC0DAFF6B
:1047E400DF50206E216A1E5020261F5021222150A6
:1047F4000AE10A0E205CD8A002EF24F005EF24F0B1
:10480400010E06EF24F0000E306E316A3050311084
:10481400D8B40FEF24F011EF24F06AEF24F01AC09B
:10482400D9FF1BC0DAFFDF501E6ED00E1E2639C022
:1048340001F03AC002F0000E046E0A0E036EDBECC7
:1048440042F01E500124396E000E02203A6E1A4ABC
:104854001B2AD00E1E6EFF0E1F6E1AC0D9FF1BC07E
:10486400DAFFDF50206E216A1E5020261F502122BD
:1048740021500AE10A0E205CD8A043EF24F046EF51
:1048840024F0010E47EF24F0000E326E336A3250EA
:104894003310D8B450EF24F052EF24F06AEF24F030
:1048A4001AC0D9FF1BC0DAFFDF501E6ED00E1E26C1
:1048B40039C001F03AC002F0000E046E0A0E036E15
:1048C400DBEC42F01E500124396E000E02203A6ED9
:1048D40036A66FEF24F071EF24F075EF24F0396CF5
:1048E4003A1ED8B03A2A395037263A5038221C504A
:1048F4001D10D8B480EF24F082EF24F091EF24F05F
:1049040036A287EF24F089EF24F091EF24F01CC045
:10491400D9FF1DC0DAFF1AC0DEFF1BC0DDFF3BC09C
:1049240001F03CC002F03DC003F03EC004F0000EB4
:10493400A2EC37F001C03BF002C03CF003C03DF0F4
:1049440004C03EF03BC001F03CC002F03DC003F0A7
:104954003EC004F0000E056E000E066E000E076EDB
:10496400000E086E9FEC3DF0D8A0BBEF24F0BDEF25
:1049740024F0C7EF24F0000E1A6E000E1B6E000E1A
:104984001C6E000E1D6E11EF26F038BECEEF24F023
:10499400CCEF24F05CEF25F0376C381ED8B0382A01
:1049A400F2EF24F03BC001F03CC002F03DC003F044
:1049B4003EC004F0F90E056E020E066E150E076E6B
:1049C400500E086E71EC2EF001C03BF002C03CF0BA
:1049D40003C03DF004C03EF0F60E3726FF0E382229
:1049E40038BE00EF25F0385007E10A0E375CD8B026
:1049F400FEEF24F000EF25F0D4EF24F01FEF25F0B4
:104A04003BC001F03CC002F03DC003F03EC004F0E6
:104A1400000E056E000E066E200E076E410E086E27
:104A240071EC2EF001C03BF002C03CF003C03DF03D
:104A340004C03EF03706D8A0380637503810D8A442
:104A440026EF25F028EF25F002EF25F03BC001F01A
:104A54003CC002F03DC003F03EC004F0000E056E01
:104A6400000E066E800E076E000E086E00EC3CF021
:104A7400D8B03FEF25F041EF25F0F0EF25F036A058
:104A840046EF25F048EF25F052EF25F0000E1A6EA0
:104A9400000E1B6E800E1C6E800E1D6E11EF26F034
:104AA400000E1A6E000E1B6E800E1C6E000E1D6E24
:104AB40011EF26F038BE67EF25F0385008E13704CF
:104AC400D8A067EF25F069EF25F0F0EF25F089EF26
:104AD40025F03BC001F03CC002F03DC003F03EC0F5
:104AE40004F0F90E056E020E066E150E076E500EDA
:104AF400086EA4EC28F001C03BF002C03CF003C0F7
:104B04003DF004C03EF0F60E3726FF0E3822385032
:104B140007E10A0E375CD8B092EF25F094EF25F048
:104B24006BEF25F0B3EF25F03BC001F03CC002F081
:104B34003DC003F03EC004F0000E056E000E066E8C
:104B4400200E076E410E086EA4EC28F001C03BF065
:104B540002C03CF003C03DF004C03EF03706D8A0CC
:104B6400380637503810D8A4BAEF25F0BCEF25F03A
:104B740096EF25F0FF0E016EFF0E026E7F0E036EA0
:104B84007F0E046E3BC005F03CC006F03DC007F04C
:104B94003EC008F000EC3CF0D8B0D3EF25F0D5EFE0
:104BA40025F0F0EF25F036A0DAEF25F0DCEF25F064
:104BB400E6EF25F0000E1A6E000E1B6E800E1C6EC2
:104BC400800E1D6E11EF26F0000E1A6E000E1B6E85
:104BD400800E1C6E000E1D6E11EF26F036A0F5EF50
:104BE40025F0F7EF25F009EF26F03BC001F03CC0BB
:104BF40002F03DC003F03EC004F0F0EC41F001C00F
:104C04003BF002C03CF003C03DF004C03EF03BC0AA
:104C14001AF03CC01BF03DC01CF03EC01DF0120059
:104C240020EE43F0070EDE6AE806FDE219C04BF001
:104C34001AC04CF04B504C10D8B423EF26F025EF9B
:104C440026F076EF28F04BC0D9FF4CC0DAFFDF50D6
:104C5400D8A42FEF26F031EF26F033EF26F076EFCD
:104C640028F04BC0D9FF4CC0DAFFDF504D6E43EF44
:104C740026F04B4A4C2A4BC0D9FF4CC0DAFFDF5018
:104C84004D6E010E376E200E4D18D8B44CEF26F041
:104C94004EEF26F066EF26F0F70E216EFF0E226E21
:104CA4004D50236E246A215023262250242224505E
:104CB40009E1050E235CD8A062EF26F064EF26F02C
:104CC40066EF26F0000E376E37C031F0326A31508D
:104CD4003210D8A470EF26F072EF26F03BEF26F0E6
:104CE400000E416E000E386E000E426E2D0E4D18F1
:104CF400D8A47FEF26F081EF26F08DEF26F0010E89
:104D0400416E4B4A4C2A4BC0D9FF4CC0DAFFDF50EE
:104D14004D6E98EF26F02B0E4D18D8A494EF26F084
:104D240096EF26F098EF26F083EF26F0300E4D181C
:104D3400D8A49FEF26F0A1EF26F0EBEF26F04B4A24
:104D44004C2A4BC0D9FF4CC0DAFFDF504D6E1D50CA
:104D54001E10D8B4B0EF26F0B2EF26F0BCEF26F068
:104D6400100E1D181E10D8A4BAEF26F0BCEF26F0C2
:104D7400DCEF26F0780E4D18D8B4C3EF26F0C5EF5B
:104D840026F0CEEF26F0580E4D18D8A4CCEF26F01E
:104D9400CEEF26F0DCEF26F0000E1E6E100E1D6E18
:104DA4004B4A4C2A4BC0D9FF4CC0DAFFDF504D6E42
:104DB400EBEF26F0010E386E1D501E10D8A4E5EF5F
:104DC40026F0E7EF26F0EBEF26F0000E1E6E080E3D
:104DD4001D6E1D501E10D8A4F2EF26F0F4EF26F03D
:104DE400F8EF26F0000E1E6E0A0E1D6E1F50D8B48A
:104DF400FEEF26F000EF27F02CEF27F04150D8A467
:104E040006EF27F008EF27F01AEF27F0FF0E396EB0
:104E1400FF0E3A6EFF0E3B6EFF0E3C6EFF0E3D6EB4
:104E2400FF0E3E6EFF0E3F6E7F0E406E34EF27F096
:104E3400000E396E000E3A6E000E3B6E000E3C6E94
:104E4400000E3D6E000E3E6E000E3F6E800E406EF4
:104E540034EF27F039683A683B683C683D683E683F
:104E64003F68406843C029F044C02AF045C02BF095
:104E740046C02CF047C02DF048C02EF049C02FF09A
:104E84004AC030F09F0E216EFF0E226E4D50236EED
:104E9400246A200E2312000E2412215023262250AD
:104EA400242224500AE11A0E235CD8A05CEF27F0D8
:104EB4005FEF27F0010E60EF27F0000E336E346AC7
:104EC40033503410D8B469EF27F06BEF27F075EF47
:104ED40027F04DC007F0086AB4EC40F00750C90F42
:104EE4004D6E9AEF27F0D00E216EFF0E226E4D50BC
:104EF400236E246A215023262250242224500AE1BE
:104F04000A0E235CD8A089EF27F08CEF27F0010E5E
:104F14008DEF27F0000E356E366A35503610D8B452
:104F240096EF27F098EF27F056EF28F0300E4D5EFD
:104F34004D50216E226A1D50215C2250800A236E3E
:104F44001E50800A2358D8A0AAEF27F0ACEF27F010
:104F5400AEEF27F056EF28F04250D8A4B4EF27F074
:104F6400B6EF27F04AEF28F01DC001F01EC002F092
:104F7400000E02BEFF0E036E046E056E066E076E13
:104F8400086E43C009F044C00AF045C00BF046C0A7
:104F94000CF047C00DF048C00EF049C00FF04AC0F5
:104FA40010F048EC3EF001C021F002C022F003C032
:104FB40023F004C024F005C025F006C026F007C085
:104FC40027F008C028F04D502124436E000E222003
:104FD400446E000E2320456E000E2420466E000E03
:104FE4002520476E000E2620486E000E2720496EAD
:104FF400000E28204A6E2950435C2A5044582B50F6
:1050040045582C5046582D5047582E5048582F502C
:10501400495830504A58D8A012EF28F014EF28F01D
:1050240033EF28F01F50D8B41AEF28F01CEF28F003
:105034004AEF28F04350395C44503A5845503B58A5
:1050440046503C5847503D5848503E5849503F58A8
:105054004A504058D8B031EF28F033EF28F04AEFE7
:1050640028F039C043F03AC044F03BC045F03CC09E
:1050740046F03DC047F03EC048F03FC049F040C054
:105084004AF0000E0001D46F220ED36F010E426E5F
:105094004B4A4C2A4BC0D9FF4CC0DAFFDF504D6E4F
:1050A400010E386E34EF27F04250D8A45CEF28F09C
:1050B4005EEF28F076EF28F04150D8B464EF28F082
:1050C40066EF28F076EF28F04A1E491E481E471E58
:1050D400461E451E441E436C000E442245224622B1
:1050E4004722482249224A221B501C10D8B47DEF83
:1050F40028F07FEF28F093EF28F03850D8A485EFFC
:1051040028F087EF28F08BEF28F019C04BF01AC075
:105114004CF01BC0D9FF1CC0DAFF4BC0DEFF4CC0F3
:10512400DDFF43C019F044C01AF045C01BF046C06F
:105134001CF047C01DF048C01EF049C01FF04AC013
:1051440020F012000450800B0D6E04500424136EE2
:1051540003AEAFEF28F0B1EF28F0B2EF28F01380E0
:105164001350D8B4B8EF28F0BAEF28F0CDEF28F0F8
:105174001328D8A4C0EF28F0C2EF28F0CAEF28F013
:10518400000E016E000E026E000E036E000E046E21
:10519400038ED5EF28F0000E016E000E026E000E95
:1051A400036E000E046E0850800B0D1A085008247C
:1051B400126E07AEE0EF28F0E2EF28F0E3EF28F0FC
:1051C40012801250D8B4E9EF28F0EBEF28F0FEEF8C
:1051D40028F01228D8A4F1EF28F0F3EF28F0FBEF21
:1051E40028F0000E056E000E066E000E076E000E0F
:1051F400086E078E06EF29F0000E056E000E066E8F
:10520400000E076E000E086E1250D8B40CEF29F091
:105214000EEF29F016EF29F01350D8A414EF29F05B
:1052240016EF29F020EF29F0000E016E000E026E39
:10523400000E036E000E046EB8EF2AF00750010250
:10524400F3CF18F0F4CF19F018500E6E0F6A106AED
:10525400116A1950146E156A166A176A065002020A
:10526400F3CF18F0F4CF19F018500E26000E0F22C9
:105274001022112219501426000E1522162217226C
:1052840005500302F3CF18F0F4CF19F018500E268E
:10529400000E0F221022112219501426000E15227E
:1052A4001622172210C011F00FC010F00EC00FF01C
:1052B4000E6A05500202F3CF18F0F4CF19F018501B
:1052C4000E2619500F22000E1022000E1122065035
:1052D4000102F3CF18F0F4CF19F018500E2619502C
:1052E4000F22000E1022000E112210C011F00FC068
:1052F40010F00EC00FF00E6A05500102F3CF18F043
:10530400F4CF19F018500E2619500F22000E102257
:10531400000E112207500202F3CF18F0F4CF19F057
:105324001850142619501522000E1622000E1722AA
:1053340006500302F3CF18F0F4CF19F018501426D6
:1053440019501522000E1622000E172207500302D0
:10535400F3CF18F0F4CF19F01850096E19500A6EF3
:105364000B6A0C6A0BC00CF00AC00BF009C00AF0FF
:10537400096A095014260A5015220B5016220C50A3
:1053840017220EC009F00FC00AF010C00BF011C0B4
:105394000CF0190ED3EF29F0D8900C320B320A32EC
:1053A4000932E82ECEEF29F0095014260A501522AE
:1053B4000B5016220C50172210C011F00FC010F021
:1053C4000EC00FF00E6A125013C009F00A6A0926C3
:1053D400000E0A22820E0924186EFF0E0A20196E8E
:1053E40009EF2AF0D890143615361636173611AE52
:1053F400FEEF29F000EF2AF001EF2AF01480D89094
:105404000E360F36103611361806D8A0190616AE09
:105414000EEF2AF010EF2AF0F4EF29F0000E126ECE
:1054240011AE17EF2AF019EF2AF03DEF2AF0FF0E24
:105434000E14096EFF0E0F140A6EFF0E10140B6E7D
:105444007F0E11140C6E09500A100B100C10D8B4F6
:105454002EEF2AF030EF2AF034EF2AF0010E126E0C
:105464003DEF2AF014A039EF2AF03BEF2AF03DEF8C
:105474002AF030EF2AF01250D8B443EF2AF045EF67
:105484002AF069EF2AF0010E1426000E15221622C6
:10549400172217A050EF2AF052EF2AF069EF2AF0F2
:1054A40014C009F015C00AF016C00BF017C00CF0B8
:1054B4000C340C320B320A32093209C014F00AC01F
:1054C40015F00BC016F00CC017F0184A192A19BEB3
:1054D40074EF2AF0195008E11828D8A074EF2AF0C4
:1054E40076EF2AF080EF2AF0000E146E000E156E8F
:1054F400800E166E7F0E176EAEEF2AF019BE8DEF7A
:105504002AF0195006E11804D8B08BEF2AF08DEF79
:105514002AF099EF2AF0000E146E000E156E000E9C
:10552400166E000E176E000E0D6EAEEF2AF018C048
:1055340013F0FF0E1416FF0E15167F0E1616000E2E
:10554400171613A0A8EF2AF0AAEF2AF0ABEF2AF05F
:10555400168ED8901330176E0D50171214C001F028
:1055640015C002F016C003F017C004F012000600C4
:10557400E1CFC1F0E2CFC2F0D9CFC3F0DACFC4F0AB
:10558400F3CFC5F0F4CFC6F0F6CFC7F0F7CFC8F02D
:10559400F8CFC9F0F5CFCAF0ABA2D3EF2AF0D5EF1C
:1055A4002AF0D7EF2AF0AB98AB889EAADCEF2AF05A
:1055B400DEEF2AF00DEF2BF09E9AAECFCCF0240E46
:1055C4000001CC19D8A4E9EF2AF0EBEF2AF0EDEFB3
:1055D4002AF0000EF16F880EF125D96EDA6A010EF9
:1055E400DA22CCC0DFFFF12B230ECC19D8A4FDEFB7
:1055F4002AF0FFEF2AF00DEF2BF0880EF125D96E7B
:10560400DA6A010EDA22000EDF6E880EBB6F010E1D
:10561400BC6F3EEC30F09EAC12EF2BF014EF2BF08D
:1056240025EF2BF09E9CC350C4CFBFF00001C06B8C
:10563400BFC0C0F0BF6BBF11E36FC051E46F000E79
:10564400DE6F010EDD6FF2A02AEF2BF02CEF2BF0B2
:10565400E0EF2BF081CFCBF08ACF8AFFF2900001EC
:10566400F351D8B438EF2BF03AEF2BF0E0EF2BF0F6
:1056740081B83FEF2BF041EF2BF04DEF2BF0F851B9
:10568400D8A447EF2BF049EF2BF04DEF2BF0010E90
:10569400F86F63EF2BF081A852EF2BF054EF2BF04F
:1056A40063EF2BF0F805D8A45AEF2BF05CEF2BF046
:1056B40063EF2BF0000EF86F000EEE6F010EED6F2E
:1056C4008C9081BA68EF2BF06AEF2BF076EF2BF019
:1056D400F751D8A470EF2BF072EF2BF076EF2BF08C
:1056E400010EF76F8CEF2BF081AA7BEF2BF07DEF8F
:1056F4002BF08CEF2BF0F705D8A483EF2BF085EF7C
:105704002BF08CEF2BF0000EF76F000EEC6F010EF8
:10571400EB6F8B9081BC91EF2BF093EF2BF09FEF0D
:105724002BF0F651D8A499EF2BF09BEF2BF09FEFC1
:105734002BF0010EF66FB5EF2BF081ACA4EF2BF03C
:10574400A6EF2BF0B5EF2BF0F605D8A4ACEF2BF0B9
:10575400AEEF2BF0B5EF2BF0000EF66F000EEA6FF4
:10576400010EE96F8A9081BEBAEF2BF0BCEF2BF0EB
:10577400C8EF2BF0F551D8A4C2EF2BF0C4EF2BF0F7
:10578400C8EF2BF0010EF56FE0EF2BF081AECDEFFB
:105794002BF0CFEF2BF0E0EF2BF0F505D8A4D5EFED
:1057A4002BF0D7EF2BF0E0EF2BF0000EF56F000E8F
:1057B400E86F010EE76F8990E0EF2BF0F2A4E5EFBC
:1057C4002BF0E7EF2BF080EF2CF0F294D668C20EAA
:1057D400D76E0001E14BE22BF405D8A4F4EF2BF0D3
:1057E400F6EF2BF080EF2CF0DF51E011D8B4FDEF91
:1057F4002BF0FFEF2BF026EF2CF0F951E11907E124
:10580400FA51E219D8A409EF2CF00BEF2CF022EF97
:105814002CF0C282DD51DE11D8B413EF2CF015EF59
:105824002CF080EF2CF0E3EC3EF0000E0001E26F70
:10583400000EE16F000EDE6F000EDD6F80EF2CF0C6
:1058440096EC42F080EF2CF0ED51EE11D8B42DEF30
:105854002CF02FEF2CF03DEF2CF0040EB0EC42F0C6
:10586400000E0001EE6F000EED6FFB51E55FFC5181
:10587400E65B78EF2CF0EB51EC11D8B444EF2CF04C
:1058840046EF2CF050EF2CF0050EB0EC42F0000E79
:105894000001EC6F000EEB6F37EF2CF0E951EA11C9
:1058A400D8B457EF2CF059EF2CF063EF2CF0060E20
:1058B400B0EC42F0000E0001EA6F000EE96F37EF22
:1058C4002CF0E751E811D8B46AEF2CF06CEF2CF00F
:1058D40076EF2CF0070EB0EC42F0000E0001E86FFA
:1058E400000EE76F37EF2CF096EC42F0310E5C6E51
:1058F400100E5D6EC7EC42F080EF2CF0CAC0F5FFCD
:10590400C9C0F8FFC8C0F7FFC7C0F6FFC6C0F4FFA0
:10591400C5C0F3FFC4C0DAFFC3C0D9FFC2C0E2FFF1
:10592400C1C0E1FF5F92110045C0D9FF46C0DAFF54
:10593400DECFF6FFDDCFF7FF000EF86E0800F5505E
:10594400250AD8A4A8EF2CF0AAEF2CF053EF2EF0E0
:1059540045C0D9FF46C0DAFFDE2A000EDD22000E64
:105964000001D86F000ED76FD7C0DBF0D8C0DCF0D1
:10597400D969DA69000E566E000E556E0FEF2DF0E0
:105984000001DB8145C0D9FF46C0DAFFDE2A000EE4
:10599400DD220FEF2DF00001DB83C4EF2CF00001BA
:1059A400DB85C4EF2CF00001DB87C4EF2CF0000191
:1059B400DB89C4EF2CF0000E566E010E556E0FEF0E
:1059C4002DF045C0D9FF46C0DAFFDECFF6FFDDCFAC
:1059D400F7FF000EF86E0800F550496E4A6A4A5007
:1059E400000AD8B4F8EF2CF0DDEF2CF04950200A6F
:1059F400D8B4D5EF2CF0030AD8B4D9EF2CF0080AA8
:105A0400D8B4D1EF2CF0060AD8B4C2EF2CF01D0A9A
:105A1400D8B4CDEF2CF0DDEF2CF055505610D8B49F
:105A240016EF2DF018EF2DF0E3EF2CF00001DBA1C1
:105A34001EEF2DF020EF2DF021EF2DF0DB9345C06C
:105A4400D9FF46C0DAFFDECFF6FFDDCFF7FF000E49
:105A5400F86E0800F5502A0AD8A433EF2DF035EF7C
:105A64002DF05EEF2DF045C0D9FF46C0DAFFDE2AE7
:105A7400000EDD2247C0D9FF48C0DAFFDFCF49F06E
:105A8400020EDE26DFCF4AF0000EDD2249C0D9FF28
:105A94004AC0DAFFDECFD7F0DDCFD8F0D8BF57EF5A
:105AA4002DF055EF2DF0A3EF2DF0DB81D76DD81F2E
:105AB400D8B0D82BA3EF2DF045C0D9FF46C0DAFFEC
:105AC400DECF08F0DDCF09F052EC39F008C0D7F092
:105AD40009C0D8F075EF2DF045C0D9FF46C0DAFFF4
:105AE400DE2A000EDD22D00E496EFF0E4A6E45C03E
:105AF400D9FF46C0DAFFDECFF6FFDDCFF7FF000E99
:105B0400F86E0800F5504B6E4C6A49504B264A50CB
:105B14004C224C500AE10A0E4B5CD8A094EF2DF0B5
:105B240097EF2DF0010E98EF2DF0000E576E586A86
:105B340057505810D8A4A1EF2DF0A3EF2DF06EEF1D
:105B44002DF045C0D9FF46C0DAFFDECFF6FFDDCF2A
:105B5400F7FF000EF86E0800F550780AD8B4B5EFD8
:105B64002DF0B7EF2DF0CBEF2DF045C0D9FF46C097
:105B7400DAFFDECFF6FFDDCFF7FF000EF86E080088
:105B8400F550580AD8A4C9EF2DF0CBEF2DF01BEF38
:105B94002EF045C0D9FF46C0DAFFDECFF6FFDDCFD9
:105BA400F7FF000EF86E0800F5CF59F045C0D9FF95
:105BB40046C0DAFFDE2A000EDD2247C0D9FF48C006
:105BC400DAFFDFCF49F0020EDE26DFCF4AF0000E07
:105BD400DD2249C0D9FF4AC0DAFFDECF4BF0DDCF6A
:105BE4004CF04BC04DF04CC04EF04F6A506A516AB5
:105BF400526A536A546A43C01CF044C01DF04DC03D
:105C04001EF04EC01FF04FC020F050C021F051C014
:105C140022F052C023F053C024F054C025F059C0E0
:105C240026F0F7EC31F01CC043F01DC044F070EFD7
:105C34002EF045C0D9FF46C0DAFFDECFF6FFDDCF38
:105C4400F7FF000EF86E0800F550250AD8A42DEFD2
:105C54002EF02FEF2EF046EF2EF045C0D9FF46C0B0
:105C6400DAFFDE2A000EDD22000E026E250E016E22
:105C740043C003F044C004F082EC3CF0000E446ED8
:105C8400010E436E70EF2EF045C0D9FF46C0DAFF17
:105C9400DE2A000EDD22000E446E000E436E70EF0D
:105CA4002EF045C0D9FF46C0DAFFDECFF6FFDDCFC8
:105CB400F7FF000EF86E0800F550016E026A43C04B
:105CC40003F044C004F082EC3CF045C0D9FF46C068
:105CD400DAFFDE2A000EDD2240EF2EF0120004501F
:105CE400800B116E04500424186E03AE7CEF2EF06A
:105CF4007EEF2EF07FEF2EF018801850D8B485EF89
:105D04002EF087EF2EF09CEF2EF01828D8A48DEFFC
:105D14002EF08FEF2EF097EF2EF0000E016E000E96
:105D2400026E000E036E000E046E038E000E046EEF
:105D3400A4EF2EF0000E016E000E026E000E036E34
:105D4400000E046E0850800B111A08500824196EB6
:105D540007AEAFEF2EF0B1EF2EF0B2EF2EF01980B8
:105D64001950D8B4B8EF2EF0BAEF2EF0CFEF2EF0D2
:105D74001928D8A4C0EF2EF0C2EF2EF0CAEF2EF0EF
:105D8400000E056E000E066E000E076E000E086E05
:105D9400078E000E086ED7EF2EF0000E056E000E73
:105DA400066E000E076E000E086E055006100710F2
:105DB4000810D8A4E0EF2EF0E2EF2EF0FAEF2EF068
:105DC400000E016E000E026E000E036E000E046ED5
:105DD400800E03127F0E04121150041201C001F050
:105DE40002C002F003C003F004C004F03DEF30F041
:105DF4001850D8A400EF2FF002EF2FF00CEF2FF083
:105E0400000E016E000E026E000E036E000E046E94
:105E14003DEF30F0195018C009F00A6A095E000E0F
:105E24000A5A7F0E0924126E000E0A20136E01C056
:105E34000DF002C00EF003C00FF004C010F0000E0D
:105E4400016E000E026E000E036E000E046E000E54
:105E5400146E000E156E000E166E000E176E000EF8
:105E6400196E6DEF2FF01950D8B43BEF2FF03DEFC2
:105E74002FF054EF2FF0D8900D360E360F36103623
:105E8400D890013602360336043617AE4CEF2FF0A5
:105E94004EEF2FF04FEF2FF00180D89014361536C7
:105EA4001636173605500D5C06500E5807500F581D
:105EB40008501058D8A061EF2FF063EF2FF06CEF6B
:105EC4002FF0178C05500D5E06500E5A07500F5ACE
:105ED4000850105A192A190E196473EF2FF075EF30
:105EE4002FF035EF2FF00D500E100F101010D8B406
:105EF4007EEF2FF080EF2FF098EF2FF0148098EFC3
:105F04002FF0D890013602360336043617AE8DEFE3
:105F14002FF08FEF2FF090EF2FF00180D8901436F0
:105F24001536163617361206D8A0130603AE9DEFA3
:105F34002FF09FEF2FF083EF2FF0000E196E17AEA6
:105F4400A6EF2FF0A8EF2FF0CCEF2FF0FF0E1414D4
:105F5400096EFF0E15140A6EFF0E16140B6E7F0EDB
:105F640017140C6E09500A100B100C10D8B4BDEFA6
:105F74002FF0BFEF2FF0C3EF2FF0010E196ECCEF0F
:105F84002FF001A0C8EF2FF0CAEF2FF0CCEF2FF0C5
:105F9400BFEF2FF01950D8B4D2EF2FF0D4EF2FF079
:105FA400F8EF2FF0010E0126000E02220322042234
:105FB40004A0DFEF2FF0E1EF2FF0F8EF2FF001C096
:105FC40009F002C00AF003C00BF004C00CF00C345A
:105FD4000C320B320A32093209C001F00AC002F055
:105FE4000BC003F00CC004F0124A132A13BE03EFD3
:105FF40030F0135008E11228D8A003EF30F005EF79
:1060040030F010EF30F0000E136E1268000E016EC7
:10601400000E026E000E036E000E046E13BE1DEF22
:1060240030F0135006E11204D8B01BEF30F01DEF2E
:1060340030F02BEF30F0000E136E000E126E000ED7
:10604400016E000E026E000E036E000E046E000E52
:10605400116E12C018F018A032EF30F034EF30F0A7
:1060640037EF30F0038E38EF30F0039ED8901830BD
:10607400046EEEEF2EF01200BBC001F0BCC002F0C3
:10608400510E036E100E046E000E066E040E056EA5
:106094006AEC3BF001500210D8A453EF30F055EFF6
:1060A40030F074EF30F0F28A010E0001F46F040E48
:1060B400BB25AB6F000EBC21AC6FA30EAD6F100EF1
:1060C400AE6FFD0EAF6F000EB06FD4EC41F0FDC0AB
:1060D400E5F0FEC0E6F0000E0001FC6F000EFB6F61
:1060E400F6EF31F0BBC001F0BCC002F0470E036E06
:1060F400100E046E000E066E040E056E6AEC3BF084
:1061040001500210D8A489EF30F08BEF30F09EEFED
:1061140030F0040E0001BB25AB6F000EBC21AC6F48
:10612400A30EAD6F100EAE6FFB0EAF6F000EB06F0F
:10613400D4EC41F0F6EF31F0BBC001F0BCC002F08A
:10614400560E036E100E046E000E066E040E056EDF
:106154006AEC3BF001500210D8A4B3EF30F0B5EF75
:1061640030F008EF31F0040E0001BB25AB6F000ED8
:10617400BC21AC6FA30EAD6F100EAE6FF90EAF6FF6
:10618400000EB06FD4EC41F0F9C001F0FAC002F097
:10619400000E046E640E036E73EC3FF001C0F9F060
:1061A40002C0FAF00001DF51E011D8A4DCEF30F0B6
:1061B400DEEF30F0F2EF30F0F951FA11D8B4E5EF38
:1061C40030F0E7EF30F0F2EF30F0C282000EE06F13
:1061D400010EDF6F000EE26F000EE16FF6EF31F09B
:1061E400F951FA11D8A4F9EF30F0FBEF30F001EFD8
:1061F40031F0000EE06F000EDF6FF6EF31F0C28277
:10620400000EE26F000EE16FF6EF31F0BBC001F05B
:10621400BCC002F04C0E036E100E046E000E066E2F
:10622400040E056E6AEC3BF001500210D8A41DEF79
:1062340031F01FEF31F06EEF31F0000120EE04F089
:10624400BB51D926BC51DA22300EDE18D8A42DEF6A
:1062540031F02FEF31F047EF31F020EE05F0BB5174
:10626400D926BC51DA22310EDE18D8A43CEF31F025
:106274003EEF31F047EF31F0F286010EF36F8C9070
:106284008B908A908990F6EF31F020EE04F0BB51A8
:10629400D926BC51DA22300EDE18D8A454EF31F0DE
:1062A40056EF31F0F6EF31F020EE05F0BB51D92670
:1062B400BC51DA22300EDE18D8A463EF31F065EF5A
:1062C40031F0F6EF31F0000EF36FF2968C908B9074
:1062D4008A908990F6EF31F0BBC001F0BCC002F0A7
:1062E4003D0E036E100E046E000E066E040E056E57
:1062F4006AEC3BF001500210D8A483EF31F085EF33
:1063040031F0D4EF31F00001F351D8B48CEF31F017
:106314008EEF31F0F6EF31F0040EBB25AB6F000EBB
:10632400BC21AC6F9F0EAD6F100EAE6F5E0EAF6FE3
:10633400000EB06FD4EC41F0B2EF31F08C908B9042
:106344008A908990F6EF31F08C80F6EF31F08B80F3
:10635400F6EF31F08A80F6EF31F08980F6EF31F014
:106364005E500001BD6FBE6BBE51000AD8B4BDEFD4
:1063740031F0F6EF31F0BD51000AD8B4A0EF31F09E
:10638400010AD8B4A6EF31F0030AD8B4A9EF31F06A
:10639400010AD8B4ACEF31F0070AD8B4AFEF31F04A
:1063A400F6EF31F0BBC001F0BCC002F0420E036E48
:1063B400100E046E000E066E040E056E6AEC3BF0C1
:1063C40001500210D8A4E9EF31F0EBEF31F0F6EF11
:1063D40031F0020E0001F46F370E016E100E026EE2
:1063E400E5EC3FF0F6EF31F012000001DABFFDEF0B
:1063F40031F0FFEF31F000EF32F0DB93DABF0DEF55
:1064040032F0DA5106E1D905D8B00BEF32F00DEFD6
:1064140032F013EF32F0000E346E010E336E17EFCC
:1064240032F0D9C033F0DAC034F0D7C035F0D8C078
:1064340036F0DBA920EF32F022EF32F026EF32F013
:10644400FE0E3526FF0E36221EC037F01FC038F070
:1064540020C039F021C03AF022C03BF023C03CF008
:1064640024C03DF025C03EF0000E406E1F0E3F6E6E
:10647400000E0101876FF2EF32F03F06D8A040060C
:106484000F0E3714416E426A42BE52EF32F0425050
:1064940009E10A0E415CD8A052EF32F054EF32F019
:1064A4005CEF32F0570E4124416E000E4220426EE2
:1064B40062EF32F0300E4124416E000E4220426EF3
:1064C400BF0E276EFF0E286E2650296E2A6A2750AB
:1064D400292628502A222A500AE11A0E295CD8A01B
:1064E40076EF32F079EF32F0010E7AEF32F0000EEF
:1064F4002F6E306A2F503010D8B483EF32F085EF0E
:1065040032F0B5EF32F09F0E276EFF0E286E200E8C
:106514004110296E000E42102A6E27502926285059
:106524002A222A500AE11A0E295CD8A09CEF32F0E4
:106534009FEF32F0010EA0EF32F0000E316E326A9E
:1065440031503210D8B4A9EF32F0ABEF32F0B5EFDE
:1065540032F041C007F042C008F0B4EC40F007C08C
:1065640041F008C042F0680E3F24D96E010E40206D
:10657400DA6E41C0DFFF3306D8A034063506D8A052
:10658400360637C027F038C028F039C029F03AC0A1
:106594002AF03BC02BF03CC02CF03DC02DF03EC097
:1065A4002EF0050EDFEF32F0D8902E322D322C3241
:1065B4002B322A32293228322732E82ED6EF32F013
:1065C40027C037F028C038F029C039F02AC03AF083
:1065D4002BC03BF02CC03CF02DC03DF02EC03EF053
:1065E40040BEFEEF32F0405009E1020E3F5CD8A0FD
:1065F400FEEF32F000EF33F031EF33F03750381064
:1066040039103A103B103C103D103E10D8A40DEF49
:1066140033F00FEF33F03FEF32F034BE1CEF33F0C2
:10662400345006E13304D8B01AEF33F01CEF33F0E2
:106634003FEF32F036BE27EF33F0365008E1350431
:10664400D8A027EF33F029EF33F031EF33F0000116
:10665400DBB32FEF33F031EF33F03FEF32F00001D3
:10666400DBA937EF33F039EF33F04FEF33F03F0668
:10667400D8A04006680E3F24D96E010E4020DA6E81
:1066840026C0DFFF3F06D8A04006680E3F24D96E1F
:10669400010E4020DA6E300EDF6E1CC011F01DC0FA
:1066A40012F0680E3F24136E010E4020146E35C0A4
:1066B40015F036C016F0E7EC3CF011C01CF012C027
:1066C4001DF0120040C00CF041C00DF0F4EC3DF0A0
:1066D4000001CF51D011D8A472EF33F074EF33F02E
:1066E4007AEF33F0000E4D6E4F0E4C6E7EEF33F0AA
:1066F400CFC04CF0D0C04DF0000E516E000E506E65
:1067040050C054F051C055F054C04AF055C04BF03D
:106714004AC048F04BC049F05EEF34F040C003F08B
:1067240041C004F097EC3EF003C056F004C057F0AB
:10673400562806E15728D8A4A2EF33F0A4EF33F08B
:10674400AAEF33F056C040F057C041F0B3EF34F035
:1067540050505110D8A4B1EF33F0B3EF33F0DAEF67
:1067640033F02B0E56185710D8B4BBEF33F0BDEFEF
:1067740033F0C7EF33F02D0E56185710D8A4C5EFD9
:1067840033F0C7EF33F0DAEF33F0000E516E010E41
:10679400506E180E5424D96E010E5520DA6E56C070
:1067A400DFFF544A552A0001CD4BCE2B5EEF34F067
:1067B40048504910D8A4E1EF33F0E3EF33F0F3EF9E
:1067C40033F02E0E56185710D8A4EBEF33F0EDEF3C
:1067D40033F0F3EF33F0000E496E010E486ECBEF49
:1067E40033F04A504B10D8A4FAEF33F0FCEF33F0F7
:1067F4002EEF34F0650E56185710D8B404EF34F069
:1068040006EF34F024EF34F0450E56185710D8B480
:106814000EEF34F010EF34F024EF34F0700E56180D
:106824005710D8B418EF34F01AEF34F024EF34F0E2
:10683400500E56185710D8A422EF34F024EF34F039
:106844002EEF34F0000E4B6E010E4A6E000E516EA8
:10685400000E506ECBEF33F0D00E446EFF0E456E3B
:1068640056C046F057C047F044504626455047228C
:1068740047500AE10A0E465CD8A043EF34F046EFD5
:1068840034F0010E47EF34F0000E4E6E4F6A4E5056
:106894004F10D8A450EF34F052EF34F0CBEF33F074
:1068A40056C001F057C002F040C003F041C004F0EC
:1068B4002EEC3FF078EF34F04C50545C5550800A85
:1068C400446E4D50800A4458D8B06BEF34F06DEFED
:1068D40034F078EF34F0555009E14F0E545CD8A0F1
:1068E40076EF34F078EF34F090EF33F0180E542450
:1068F400D96E010E5520DA6E000EDF6E180E1A6E78
:10690400010E1B6E520E1C6E000E1D6E5BEC1DF014
:1069140042C0D9FF43C0DAFF1AC0DEFF1BC0DEFF4E
:106924001CC0DEFF1DC0DEFF0001D351D411D8A46A
:106934009EEF34F0A0EF34F0AFEF34F05450551024
:10694400D8B4A7EF34F0A9EF34F0AFEF34F0000E71
:10695400416E010E406EB3EF34F0FF0E416EFE0E39
:10696400406E120056C00CF057C00DF0F4EC3DF030
:106974000001CF51D011D8A4C2EF34F0C4EF34F0E9
:10698400CAEF34F0000E6B6F4F0E6A6FCEEF34F027
:10699400CFC06AF0D0C06BF0000E6F6F000E6E6F48
:1069A4004AEF35F056C003F057C004F097EC3EF0C0
:1069B40003C070F004C071F00001702906E1712970
:1069C400D8A4E7EF34F0E9EF34F0EFEF34F070C01F
:1069D40056F071C057F0BCEF35F06E516F11D8A46A
:1069E400F6EF34F0F8EF34F01AEF35F02B0E70199F
:1069F4007111D8B400EF35F002EF35F00CEF35F03B
:106A04002D0E70197111D8A40AEF35F00CEF35F082
:106A14001AEF35F0180E6E25D96E010E6F21DA6E5D
:106A240070C0DFFF6E4B6F2BCD4BCE2B4AEF35F092
:106A3400D00E606FFF0E616F70C062F071C063F0C2
:106A4400605162276151632363510AE10A0E625D5A
:106A5400D8A02FEF35F032EF35F0010E33EF35F0DB
:106A6400000E6C6F6D6B6C516D11D8A43CEF35F05A
:106A74003EEF35F00CEF35F070C001F071C002F05C
:106A840056C003F057C004F02EEC3FF064EF35F02D
:106A94006A516E5D6F51800A606F6B51800A605954
:106AA400D8B057EF35F059EF35F064EF35F06F514A
:106AB40009E14F0E6E5DD8A062EF35F064EF35F05A
